:100000000C9482050C94C9050C94C9050C94C9057F
:100010000C94C9050C94C9050C94C9050C94C90528
:100020000C94C9050C94C9050C94EF240C94C325B9
:100030000C94491C0C94C9050C94C9050C94C90571
:100040000C94C9050C94CA0C0C94C9050C94C905F0
:100050000C94EE0C0C94A01C0C94C9050C94C905CE
:100060000C94C9050C94C9050C94C9050C94C905D8
:100070000C94C9050C94C9050C94C9050C94C905C8
:100080000C94C9050C94C9050C94C9050C94C905B8
:100090000C94C9050C94C9050C94C9050C94C905A8
:1000A0000C94C9050C94C9050C94C9052B001400C7
:1000B0001A000800150017001C0018000C001200A0
:1000C00013002A00035104001600070009000A006B
:1000D0000B000D000E000F003300280002551D001C
:1000E0001B00060019000500110010003600370043
:1000F00038003400E0003500E300E200095D2C0028
:100100002C000A5D5000510052004F00000000001A
:1001100000000000000000000000000000000000DF
:100120000000000029001E021F02200221022202FC
:10013000230224022502260227024C0001003A0075
:100140003B003C003D003E003F002D022E022F02EE
:100150003002010001004000410042004300440021
:10016000450001000100A80001003102010001006A
:100170000100010001002A002A000100AB00AA00D2
:10018000A900AE0000000000000000000000000018
:1001900000000000000000000000000029001E0018
:1001A0001F0020002100220023002400250026003B
:1001B00027004C0001002100220023002E023E00F7
:1001C0003F002D002E002F003000010028002400E9
:1001D000250026002D004400450032006400A800E0
:1001E00001003100010036002700370001002A001D
:1001F0002A000100AB00AA00A900AE000000000028
:1002000000000000000000000000000000000000EE
:1002100000000000010001000100010001000100D8
:100220000100010052000100010001000100010075
:1002300001000100010001000100500051004F00C9
:10024000010001003900010001000100010001006E
:100250000100010001000100010001000100010096
:100260000100010001000100010001000100010086
:10027000010001000000000000000000000000007C
:100280000000000000000000000000002903010041
:100290000100010001000100010001000100010056
:1002A00001004C050100010001001D5C1E5C135C97
:1002B0000A5C085D010001000100010001002B5CE7
:1002C0002A5C265C275C2C5C2D5C0100010001008F
:1002D0000100010001000100010001000100010016
:1002E00001000100010001000100005C00000000AD
:1002F00000000000000000000000000000000000FE
:100300000000000044454255473A20646973616229
:100310006C65642E0A0044454255473A20656E617B
:10032000626C65642E0A000A002530313662003A9C
:10033000200025303258000A722F632030313233CA
:100340003435363738394142434445460A00626104
:10035000636B6C6967687420737465703A202575E7
:100360000A006261636B6C69676874206469736119
:10037000626C650A006261636B6C69676874206512
:100380006E61626C650A006261636B6C69676874B8
:1003900020746F67676C653A2025750A0062616397
:1003A0006B6C696768742064656372656173653A34
:1003B0002025750A006261636B6C69676874206947
:1003C0006E6372656173653A2025750A000A00251F
:1003D00030325820006B6579626F6172645F7265BC
:1003E000706F72743A20000A0025303258006B6535
:1003F00079626F6172645F7365745F6C65643A20E3
:10040000003F00433E20004C25640A0074696D657E
:10041000725F72656164333228293A202530346C6A
:10042000580A006B6579626F6172645F69646C651C
:100430003A2025580A006B6579626F6172645F70BB
:10044000726F746F636F6C3A2025580A00686F737F
:10045000745F6B6579626F6172645F6C6564732849
:10046000293A2025580A000A092D20537461747511
:1004700073202D0A004743433A20382E342E302073
:100480004156522D4C4942433A20322E302E3020D4
:100490004156525F415243483A20617672350A0014
:1004A0004F5054494F4E533A204C554641204558E1
:1004B0005452414B455920434F4E534F4C452043D6
:1004C0004F4D4D414E4420343039360A0042554993
:1004D0004C443A2022302E392E31302D31302D67C8
:1004E00063636234623822202832323A33363A3437
:1004F00030204A756E2031312032303230290A00E6
:100500005649443A20307831333337284D61706C86
:100510006520436F6D707574696E6729205049447A
:100520003A20307836303137284A4E414F204B65DB
:1005300079626F61726429205645523A20307830D2
:100540003030310A00444553433A2041206E6F2D2C
:100550006672696C6C73206F7274686F6C696E651B
:100560006172206B6579626F6172640A000A092DFD
:100570002056657273696F6E202D0A000A092D20BE
:10058000436F6E736F6C65202D0A4553432F713A8C
:1005900009717569740A000A092D204D6167696344
:1005A000202D0A443A094465627567204D657373CE
:1005B00061676520546F67676C650A583A094D6139
:1005C00074726978204465627567204D6F64652098
:1005D000546F67676C65202D2053686F77206B65BB
:1005E000797072657373657320696E206D617472C2
:1005F000697820677269640A4B3A094B6579626FC2
:1006000061726420446562756720546F67676C652A
:10061000202D2053686F77206B6579707265737336
:10062000207265706F72740A4D3A0944656275678D
:10063000204D6F75736520546F67676C650A563A75
:100640000956657273696F6E0A533A09537461747F
:1006500075730A433A09416374697661746520438E
:100660006F6E736F6C65204D6F64650A46312D4661
:1006700031303A0953776974636820746F204C6194
:1006800079657220302D392028463130203D204CAC
:1006900030290A302D393A09537769746368207418
:1006A0006F204C6179657220302D390A47524156CE
:1006B000453A0953776974636820746F204C6179F7
:1006C000657220302028616C7465726E61746529D2
:1006D0000A423A094A756D7020746F20426F6F7438
:1006E0006C6F616465720A4553433A094A756D70CF
:1006F00020746F20426F6F746C6F61646572202884
:10070000616C7465726E617465290A453A095072AC
:10071000696E7420454550524F4D2053657474697D
:100720006E67730A4253504143453A09436C656111
:100730007220454550524F4D0A000A002575002E83
:100740006C6576656C3A20000A002575002E656E92
:1007500061626C653A20000A0025303258006261FF
:10076000636B6C696768745F636F6E6669672E722E
:1007700061773A20000A002575002E6E6B726F3A81
:1007800020000A002575002E737761705F62616337
:100790006B736C6173685F6261636B7370616365D7
:1007A0003A20000A002575002E737761705F67722A
:1007B0006176655F6573633A20000A002575002E37
:1007C0006E6F5F6775693A20000A002575002E7309
:1007D0007761705F72616C745F726775693A20004F
:1007E0000A002575002E737761705F6C616C745F11
:1007F0006C6775693A20000A002575002E737761D1
:10080000705F7263746C5F726775693A20000A00EA
:100810002575002E737761705F6C63746C5F6C6715
:1008200075693A20000A002575002E636170736CAB
:100830006F636B5F746F5F636F6E74726F6C3A207F
:10084000000A002575002E737761705F636F6E7408
:10085000726F6C5F636170736C6F636B3A20000A38
:100860000025303258006B65796D61705F636F6E83
:100870006669672E7261773A20000A002575002E9E
:100880006D6F7573653A20000A002575002E6B6543
:1008900079626F6172643A20000A002575002E6D3E
:1008A00061747269783A20000A002575002E656E21
:1008B00061626C653A20000A002530325800646598
:1008C0006275675F636F6E6669672E7261773A2043
:1008D000000A0025750064656661756C745F6C6163
:1008E0007965723A20003F000A6D6F7573653A2092
:1008F0006F66660A000A6D6F7573653A206F6E0A3F
:10090000000A6B6579626F6172643A206F66660AED
:10091000000A6B6579626F6172643A206F6E0A003B
:100920000A6D61747269783A206F66660A000A6D12
:1009300061747269783A206F6E0A000A64656275A4
:10094000673A206F66660A000A64656275673A2036
:100950006F6E0A000A0A4A756D70696E6720746FBF
:1009600020626F6F746C6F616465722E2E2E200092
:10097000433E2000436C656172696E6720454550B7
:10098000524F4D0A006565636F6E6669673A0A00EB
:100990005B735D004B6579626F6172642073746193
:1009A00072742E0A005B575D005B535D005B525D05
:1009B000005B445D005B435D000403300000001CED
:1009C000034A004E0041004F0020004B00650079B3
:1009D0000062006F00610072006400000020034D9F
:1009E00000610070006C006500200043006F006D26
:1009F0000070007500740069006E0067000000045C
:100A000003090409025B00030100A0FA09040000C5
:100A10000103010100092111010001224000070525
:100A2000810308000A0904010001030000000921F4
:100A3000110100012232000705820320000A090487
:100A4000020002030000000921110100012222001E
:100A5000070583032000010705030320000112019D
:100A600010010000000837131760010001020301A4
:100A70000631FF0974A1010975150026FF009520B4
:100A8000750881020976150026FF009520750891EA
:100A900002C005010980A101850319012AB70015CB
:100AA0000126B700950175108100C0050C0901A150
:100AB00001850419012AA002150126A002950175DD
:100AC000108100C005010906A101050719E029E709
:100AD00015002501950875018102950175088101B0
:100AE0000507190029FF150026FF009506750881E6
:100AF00000050819012905950575019102950175F3
:100B0000039101C011241FBECFEFDAE0DEBFCDBFDD
:100B100004B603FE27C08091590290915A02A09119
:100B20005B02B0915C028730904BA740B04BD1F490
:100B30001092590210925A0210925B0210925C02BB
:100B400014BE84B7877F84BF0FB6F894A8958091B0
:100B50006000886180936000109260000FBEE0E04A
:100B6000F8E3099511E0A0E0B1E0E4EAF0E502C0A5
:100B700005900D92A039B107D9F722E0A0E9B1E0C4
:100B800001C01D92A935B207E1F70E9415220C940D
:100B900028280C940000FF93EF93E0919001F091CE
:100BA0009101309709F00995EF91FF910895FC01AB
:100BB0008591803011F0EFDFFBCF0895FF27E0E251
:100BC00030E247FF0CC0419597FF09C0EDE2609508
:100BD000709580959095611D711D811D911D27FF58
:100BE00002C0219530E350E2AA27660F771F881FC5
:100BF000991FAA1FA41710F0A41B63955A95A9F773
:100C0000AA3008F0A95FA05DAF93F3956115710557
:100C10008105910541F7ED3211F4EF93F395F21749
:100C200018F43F93F395FBCF8F91B5DFFA95E1F779
:100C30000895E991F9918591803021F0853219F07C
:100C4000AADFF9CF089520E0E89455915532C1F319
:100C5000503311F4689455915A3348F4505390F33B
:100C6000220F022E220F220F200D250FF4CF0EF49B
:100C7000219589919991533619F3533729F15335B9
:100C800059F1BC0188279927E8945C3621F48991B1
:100C9000999168945591543639F446EF7EF077FF78
:100CA0000DC08FEF9FEF0AC055374AE039F0583535
:100CB00040E121F0523642E009F00895FF93EF93AE
:100CC0007DDFEF91FF91B7CFFF93EF93FC0181910F
:100CD0008030B9F360DFFBCFFF93EF9368DFF1CF94
:100CE000DF93CF93CDB7DEB72596A3DFCF91DF910A
:100CF0000895CF9389302DE5920741F0C1E08A3005
:100D00009D4589F4FB01C28182E003C0FB01C281E1
:100D100081E0CC2359F00E94911844E062E081E028
:100D20000E944007C0E08C2FCF9108950E94B21816
:100D300044E062E081E00E944007F5CF81E0089541
:100D40000C94790608950C94A2061F93CF93DF9319
:100D500000D000D00F92CDB7DEB749835A836B83A2
:100D60003091AA0189819A8131111DC06623B9F0A1
:100D70002223A9F00E948119182F682F89819A8156
:100D80000E942D1969817A81812F0F900F900F9009
:100D90000F900F90DF91CF911F910C94D9070E9473
:100DA0005919182FEFCF0E94811969817A81EDCFEF
:100DB000FC01262F408151816281738184810C94D2
:100DC000A506CF93DF93EC0160E00E94D806BE0138
:100DD000DF91CF910C94A3068F929F92AF92BF9216
:100DE000CF92DF92EF92FF920F931F936B017C01E2
:100DF00081E090E0A0E0B0E04C015D0104C0880C0F
:100E0000991CAA1CBB1C4A95D2F7B501A4014C0140
:100E10005D0104C0880C991CAA1CBB1C2A95D2F742
:100E2000482959296A297B2904C0880F991FAA1FBC
:100E3000BB1F0A95D2F78A019B010C211D212E218F
:100E40003F21041715072607370789F48C299D29A8
:100E5000AE29BF29BC01CD011F910F91FF90EF90EA
:100E6000DF90CF90BF90AF909F908F900895809526
:100E70009095A095B0958C219D21AE21BF21EACF00
:100E80000F93382F262F60910B0270910C028091E6
:100E90000D0290910E02042F432F0E94EC060F9139
:100EA0000C946B180E94EF1A811102C00E94951BCE
:100EB0000E948F0D0C94DC090C94DF0908950C94AA
:100EC0005E0781E008950C946107CF93C82F0E94BC
:100ED0005F078C2FCF910C94630708950E9497149D
:100EE0000E946D072FEF84E39CE0215080409040EA
:100EF000E1F700C000000C94C41C0F931F93CF9324
:100F0000DF93EC0161E00E94D8068C01BE010E94D3
:100F1000A006882341F1BE01C8010E94930C8823DA
:100F200011F1BE01C8010E940C0E8823E1F0BE0140
:100F3000C8010E944D0E8823B1F0BE01C8010E9475
:100F4000700F882381F08A81882341F101308CE57C
:100F5000180779F00E3D8CE51807E9F001151C45DE
:100F6000E9F40E946E0780E0DF91CF911F910F910D
:100F7000089590912002892F8E7F90FF8160809349
:100F8000200280FF05C086E193E00E94D705EBCFE9
:100F900084E093E0FACF0E94951BE5CFCE01DF916C
:100FA000CF911F910F910C949E0690E080E00895E0
:100FB0000895972F70E02CE0929F600D711D112411
:100FC000FB019CE3899FE00DF11D1124EE0FFF1F33
:100FD000E455FF4F859194910895FC01EE0FFF1F9A
:100FE000E95DFC4F859194910895CF93DF930E9422
:100FF000D9070E940109EC01811520E5920708F04C
:1010000041C0811530E4930708F0B4C0803E9105DB
:1010100018F5803C910508F09DC0883A910570F460
:10102000853A910508F08EC081309105F9F000975E
:10103000E9F00497D8F4D0E0C0E018C08F3B9105E8
:10104000D0F7C85AD0E0CC0FDD1FC35FDE4F099048
:10105000D881C02DD4640AC08115904258F4C115BE
:1010600081E0D80718F4C83ED10528F7CE01DF91FA
:10107000CF910895C11590E3D90708F071C0CE0152
:101080009F706AC0811525E5920758F5811534E5F2
:10109000930708F09EC0811542E5940750F4C115EE
:1010A00081E5D80708F469C0DC2FCC27C16FD06A6E
:1010B000DDCF982F969596959E0123703327C11505
:1010C000D34508F077C0C1E0D0E002C0CC0FDD1FEF
:1010D0002A95E2F720E2929FC0011124C82BD92B58
:1010E00067C0C11589E5D807A8F4C11598E5D907E7
:1010F00008F074C0C11526E5D20708F09CCF8C2FEC
:101100000E949809C82FD0E0DC2FCC27CC27DF71B4
:10111000D062ACCFC1153AE5D30708F464C0CE0164
:1011200090568115904208F086CF8D2F8F710E94C6
:10113000980990E0982F882788279F719C012C2B75
:10114000E901E6CFC55AD0E0C55CDE4FC881D0E0EA
:10115000D0648CCF805C91090E94ED07EC0186CFB2
:10116000CE019927D3FF03C0EC01D86C7FCFEC01EF
:10117000D06C7CCFDF70D06A79CFCE01E4E0969559
:101180008795EA95E1F783702C2F26952695237095
:1011900090E2299F90011124382B8C2F8370C1E09D
:1011A000D0E002C0CC0FDD1F8A95E2F7C22BD32B13
:1011B000DC685CCFC1E0D0E002C0CC0FDD1F2A9517
:1011C000E2F730E2939FC0011124C82BD92BDA68D3
:1011D0004DCFD82FCC27C46FD06A48CFDC2FCC2777
:1011E000C06FD06A43CF8C2F8F700E94980934E073
:1011F000D695C7953A95E1F7CF709C2FEC01D06951
:1012000035CF82389105B1F1B0F48133910509F4FD
:1012100075C048F48932910509F469C08A32910594
:1012200009F473C008958533910509F459C08933D1
:10123000910501F10895833E9105A9F138F4803EAE
:101240009105F9F0823E910549F10895863E910598
:10125000A9F1873E9105C9F1843E910519F52091C8
:101260004B0221FF1FC080914A0284FD14C087EE0B
:1012700090E0089520914A022370A1F080EE90E062
:10128000089520914A0220FD47C030914B0230FF63
:1012900009C024FF44C090E080E004C020914A02CD
:1012A00022FDF7CF089520914A0222FD3BC03091E4
:1012B0004B0230FDE3CF24FFF5CFEDCF20914A0262
:1012C00023FFF0CF24FDE7CFD2CF20914A0223FDA8
:1012D0002CC030914B0231FFEECF84EE90E00895A8
:1012E00020914A0225FFDECF89E290E00895209107
:1012F0004A0225FFD7CF85E390E0089520914A0266
:1013000026FFD0CF8AE290E0089520914A0226FF7E
:10131000C9CF81E390E0089589E390E0089583EEDA
:1013200090E0089582EE90E0089586EE90E00895B2
:1013300090914A0292FF06C0282F28712830F9F4B4
:10134000877F846093FF06C0282F28712831F1F42D
:10135000877E846120914B0220FF06C0382F3871B0
:101360003830D9F4877F816021FF06C0282F28718B
:101370002831D1F4877E816194FD877E0895282FDE
:1013800024712430F9F68B7F8860DCCF282F2471FC
:10139000243101F78B7E8861DDCF382F31713130F8
:1013A00019F78E7F8860E0CF282F2171213121F736
:1013B0008E7E8861E1CF08950C94DB0908950C942A
:1013C000DE09E82FF0E0EE0FFF1FE55CFD4F8081A6
:1013D00091810895CF92DF92EF92FF920F931F9326
:1013E000CF93DF9387E393E00E94D7058BE3E82E4A
:1013F00082E0F82ED0E0C0E092E3C92E93E0D92E2F
:1014000009E213E0DF93CF93DF92CF920E94700640
:101410008FE293E00E94D705F701819191917F01BE
:101420000E94E21A9F938F931F930F930E9470065E
:1014300087E293E00E94D70521968DB79EB7089664
:101440000FB6F8949EBF0FBE8DBFC530D105D1F643
:10145000DF91CF911F910F91FF90EF90DF90CF9090
:10146000089580EA8A95F1F70895CF93DF93AAE46F
:10147000B1E04FE451E0C1E0D0E08D91E82FE2957A
:10148000EF70F0E061A18F709E0101C0220F8A957C
:10149000EAF7922F9095962391A382A1822B82A3A3
:1014A0004A175B0751F7AEE3B1E061E070E08D9160
:1014B000E82FE295EF70F0E041A18F709B0101C031
:1014C000220F8A95EAF7922F9095942391A382A1F7
:1014D000822B82A381E0AA34B80749F71092320226
:1014E0001092310210923C0210923B021092340290
:1014F0001092330210923E0210923D021092360278
:10150000109235021092400210923F02109238025F
:1015100010923702109242021092410210923A0247
:1015200010923902109244021092430285E00E9408
:10153000240BDF91CF910C9452078F929F92AF9220
:10154000BF92CF92DF92EF92FF920F931F93CF93B0
:10155000DF938AE4E82E81E0F82E01E312E0912C7B
:10156000AA24A394B12CF70181917F01C82FC295C1
:10157000CF70D0E099A18F70650101C0CC0C8A9525
:10158000EAF7892F8C2989A38AA18C2C8094882141
:101590008AA30E94310AEEE3F1E050E040E030E03F
:1015A00020E06191A62FA295AF70B0E090968C914B
:1015B00090E06F7002C0959587956A95E2F780FD7F
:1015C0003EC0C501042E02C0880F991F0A94E2F79D
:1015D000282B392B4F5F5F4F4C30510511F789A1F4
:1015E000882289A28AA1C82ACAA2F8018081918191
:1015F0002817390739F13183208381E0982A0E5F5B
:101600001F4FFFE4EF16F1E0FF0609F0ACCF292DE4
:1016100045E06BE372E081E392E00E94250B0E94BB
:101620005C07892DDF91CF911F910F91FF90EF9073
:10163000DF90CF90BF90AF909F908F90089590E0F3
:1016400080E0C6CF80E0DACF0895FF920F931F931A
:10165000CF93DF93F82E092F162FD72FC42F2223D5
:1016600049F081E0809394010E94791C909393014A
:1016700080939201809194018823A1F0809192013E
:10168000909193010E94911C069760F0EF2DF02F2E
:10169000A12FBD2F90E080E0D0E08C179D0744F093
:1016A00010929401DF91CF911F910F91FF900895B7
:1016B000219131912D933D930196EFCF0E94EF1A26
:1016C000811102C00E94951B0E941D1B8093450240
:1016D000803220F0877088618093450290914502A6
:1016E000892F817090FF04C0892F869586958695F5
:1016F0000C94190D80914502982F96959695969584
:10170000933040F49F5F990F990F990F8770892B41
:1017100080934502809145028160809345020E943A
:10172000211B8091200280FF11C080914502869587
:10173000869586951F928F9385EB93E09F938F9369
:101740000E9470060F900F900F900F9080914502AD
:101750008695869586950C94190D80914502982F53
:10176000987F79F0885080934502887F91E009F452
:1017700090E08091450290FB80F9809345020E94A1
:10178000211B8091200280FF11C080914502869527
:10179000869586951F928F938DE993E09F938F9303
:1017A0000E9470060F900F900F900F90809145024D
:1017B0008695869586950C94190D8091450280FD3D
:1017C0001FC0816080934502813019F489E08093C5
:1017D0004502809145020E94211B8091200280FFDA
:1017E00008C085E793E09F938F930E9470060F9047
:1017F0000F90809145028695869586950C94190DDB
:1018000008958091450280FF14C08E7F8093450229
:101810000E94211B8091200280FF08C082E693E095
:101820009F938F930E9470060F900F9080E00C940E
:10183000190D0895CF93C0914502C1708091200287
:1018400080FF0CC01F92CF9387E893E09F938F9304
:101850000E9470060F900F900F900F90CC2319F0FC
:10186000CF910C94010CCF910C94DD0B909145021B
:10187000892F8695869586958F5F8F7197708430B6
:1018800080F5880F880F880F892B809345028091FF
:101890004502887F91E009F490E08091450290FB39
:1018A00080F9809345020E94211B8091200280FFD5
:1018B00011C0809145028695869586951F928F93DB
:1018C0008EE493E09F938F930E9470060F900F9089
:1018D0000F900F90809145028695869586950C9481
:1018E000190D90934502D3CF843008F083E0909196
:1018F00045029770282F220F220F220F922B9093D0
:101900004502987F21E009F420E09091450220FBF8
:1019100090F9909345020C94190D0E94740C8091DB
:1019200045020C94211B9C01FB018281882349F113
:101930002D3BFCE53F07C9F040F42B3BECE53E07AF
:1019400069F02C3B3C4579F008952F3B9CE5390725
:1019500091F070F0203C3C4589F0089583E00E94AE
:101960008D0C80E0089580E0FACF0E94AD0BF9CF96
:101970000E947A0BF6CF0E941A0CF3CF0E94360C0D
:10198000F0CF81E00895509A58980895589A089594
:10199000589808951F920F920FB60F9211242F930B
:1019A0003F934F935F936F937F938F939F93AF93E7
:1019B000BF93EF93FF930E94C80CFF91EF91BF91EB
:1019C000AF919F918F917F916F915F914F913F91D7
:1019D0002F910F900FBE0F901F9018951F920F928E
:1019E0000FB60F9211242F933F934F935F936F93F2
:1019F0007F938F939F93AF93BF93EF93FF938091C8
:101A00008800909189008130914010F00E94C60CAE
:101A1000FF91EF91BF91AF919F918F917F916F91C6
:101A20005F914F913F912F910F900FBE0F901F909C
:101A30001895CF92DF92EF92FF92CF93C82F843008
:101A400098F5811132C08091880090918900892B8E
:101A500051F080916F008D7F80936F0080916F00B7
:101A60008E7F80936F000E94C80C2C2F30E0AFEF68
:101A7000BFEF0E94CC2723E030E040E050E00E941E
:101A8000A427C9012C3764E1360700F569E070E04E
:101A90000E9490277093890060938800CF91FF90F7
:101AA000EF90DF90CF900895C3E0809188009091EF
:101AB0008900892BD1F680916F00826080936F003E
:101AC00080916F00816080936F00CFCF2A50374D97
:101AD0004F4F5F4F942F832F722F662725EF38E2E9
:101AE00041E050E00E94A42769017A01CA01B901CE
:101AF0000E9474279B01AC01C701B6010E947427A4
:101B0000672F782F892F99276115710521E08207AA
:101B1000910509F0BFCF6FEF7FEFBCCF08950E9412
:101B2000C30C82E08093800089E1809381008FEF75
:101B30009FEF90938700809386000C945E0B0F9329
:101B40001F93CF93DF93C62FD42F022FFC018281E6
:101B50008823C9F0609397010E94791C90939601A5
:101B60008093950180E28C0F883008F050C0C770D8
:101B700081E001C0880FCA95EAF7DF91CF911F91EC
:101B80000F910C943A1210919701161335C0809161
:101B90009501909196010E94911C883C910560F5F9
:101BA000C0E2CD0F1D17B9F080E2810F883040F4FC
:101BB000177081E001C0880F1A95EAF70E94411260
:101BC000C83048F481E09D2F977001C0880F9A9526
:101BD000EAF70E943A12802F0E942712C830B8F408
:101BE000D77081E001C0880FDA95EAF7DF91CF91D5
:101BF0001F910F910C94411280E28C0F883038F4C1
:101C0000C77081E001C0880FCA95EAF7EFCFDF9176
:101C1000CF911F910F9108959C01CB01233F4CE57B
:101C2000340731F190F4283DFCE53F07E9F0293D08
:101C30004CE5340769F1273D3C4579F426E241EE55
:101C400061EE0E949F0D80E00895253FFCE53F076F
:101C5000B9F090F0263F3C45B9F0FC018281882321
:101C6000D1F010929701089527E245EE65EEE9CF95
:101C700026E241EE60EEE5CF27E245EE64EEE1CFED
:101C800026E241EE62EEDDCF27E245EE66EED9CFE9
:101C900028E241E0EBCF81E00895CF93DF93EC01A0
:101CA000FB018281882309F419C1C230FCE5DF07FA
:101CB000C0F1C6319CE5D90730F09E012A5F3C4552
:101CC0002930310570F50E94021B90934B028093DE
:101CD0004A02C031ECE5DE0709F4CFC008F05BC072
:101CE000C8308CE5D80709F4B6C088F5C430ECE5F7
:101CF000DE0709F4A8C0C0F4C2308CE5D80709F4A7
:101D00009CC080914A028260C330DC4509F498C0CF
:101D100080914A0290914B020E94101B0E949714DE
:101D200080E0DF91CF91089580914A028061C630B2
:101D3000ECE5DE0709F484C080914A028860C73070
:101D4000DC4508F47DC080914A02806279C0CC30C5
:101D50008CE5D80709F489C070F480914A028C6040
:101D6000CA30ECE5DE0709F46BC008F478C0809156
:101D70004A028E7F65C0CE308CE5D80709F479C061
:101D800080914A028B7FCF30DC4508F459C08091A6
:101D90004A028F7E55C0CB3FECE5DE0709F457C001
:101DA00030F5C3318CE5D80709F46FC078F4C13140
:101DB000ECE5DE0709F465C0C231DC4509F0A8CFC7
:101DC0000E94971480914A028F773AC0C5318CE502
:101DD000D80709F462C008F476C080914B02816094
:101DE000CA3FDC4509F094CF80934B0291CFCF3F9F
:101DF000FCE5DF0709F44DC088F480914B028D7F2C
:101E0000CD3F9CE5D90781F380914B028E7FCE3F79
:101E1000DC4550F380914B028360E6CFC130FDE595
:101E2000DF0709F459C008F444C080E0C230DD4542
:101E300009F06ECF0E94971B6BCF80914A028160A0
:101E400080934A0265CF80914A028460F9CF8091E5
:101E50004B028260C9CF80914A028064F1CF0E9418
:101E6000971480914A028068EBCF80914A028D7F5F
:101E7000E7CF80914A02877FE3CF80914A028F7D2E
:101E8000DFCF80914A028F7BDBCF80914A02837F34
:101E9000D7CF80914B028C7FA7CF80914A0282FBE3
:101EA000992790F921E0922790FB82F990FB83F922
:101EB000C7CF80914B02982F909591708E7F892B80
:101EC00090FB81F991CF0E94971490914A02892F3B
:101ED00097FB87F98058B4CF81E0ACCF81E021CF68
:101EE000CF93DF93EB0186319C4511F50E94161AC2
:101EF0009A81992399F08A7A91E009F490E090937D
:101F00009801811109C089E20E94F1190E94621AA8
:101F100080E0DF91CF91089585E3F6CF809198011D
:101F2000811104C089E20E94F819F0CF85E3FBCF4C
:101F300081E0EFCF90939E0180939D010895E09101
:101F40009D01F0919E01309721F00190F081E02DEC
:101F5000099480E00895EF92FF920F931F93CF931F
:101F6000DF938C01E0919D01F0919E013097C1F1CA
:101F70000280F381E02D09958091200282FF30C01C
:101F800080FF04C085ED93E00E94D705D0E0C0E05B
:101F90008FECE82E83E0F82E8091200280FF0EC0A7
:101FA000F801EC0FFD1F80811F928F93FF92EF923B
:101FB0000E9470060F900F900F900F902196C830DE
:101FC000D10551F78091200280FF0AC08DEC93E08B
:101FD000DF91CF911F910F91FF90EF900C94D70557
:101FE000DF91CF911F910F91FF90EF900895209175
:101FF0009B0130919C012817390771F090939C0147
:1020000080939B01E0919D01F0919E01309721F01A
:102010000680F781E02D099408952091990130916F
:102020009A012817390771F090939A0180939901CA
:10203000E0919D01F0919E01309721F00084F1859F
:10204000E02D0994089585B7806885BF85B78068BD
:1020500085BF0895089508950C942A1008950C944E
:102060002E100E9423100E942B100C942C1081E043
:1020700008950C9437100E94701C0E94350A0E942B
:10208000E81C0E945E0B0C942F10CF93C82F8091F8
:10209000200282FF1EC080FF1CC08EEE93E00E94D3
:1020A000D7058091200280FF14C01F92CF9389EE44
:1020B00093E09F938F930E947006809120020F906F
:1020C0000F900F900F9080FF04C087EE93E00E9466
:1020D000D7058C2FCF910C9465079F92AF92BF923A
:1020E000CF92DF92EF92FF920F931F93CF93DF93E4
:1020F000CDB7DEB72A970FB6F894DEBF0FBECDBFBF
:102100000E949D0A0E943910882309F470C050EA89
:10211000A52E51E0B52E10E000E0902E802F0E94F9
:10212000E1096C01F501E190F1905F01E816F90613
:1021300009F457C08091200281FD0E94EA099701AD
:102140002C253D2580E0EE24E394F12CA9014E21BD
:102150005F21452B09F43FC08E839F82CE20DF2074
:1021600081E0CD2809F480E088870E94791C816095
:10217000782F9A8789874E815F8168858A850E943A
:102180001A11000F111FF801E056FE4F8081918156
:10219000E826F926F182E0820E948E0D0E949F0FB0
:1021A00090919F018917A1F10E949F0F80939F0139
:1021B0002A960FB6F894DEBF0FBECDBFDF91CF9148
:1021C0001F910F91FF90EF90DF90CF90BF90AF9055
:1021D0009F900C9445108F5FEE0CFF1C8C3009F023
:1021E000B5CF0F5F1F4F0530110509F096CF8FEF68
:1021F00089838A831B820E94791C8160782F9D834A
:102200008C8349815A816B818D810E941A11C4CFC0
:102210002A960FB6F894DEBF0FBECDBFDF91CF91E7
:102220001F910F91FF90EF90DF90CF90BF90AF90F4
:102230009F900895CF93DF93CDB7DEB72B970FB65E
:10224000F894DEBF0FBECDBF4F83588769877A876A
:102250008B871E821D8285E0FE013796DE01119676
:1022600001900D928A95E1F749815A816B817C81B9
:102270008D819E812B960FB6F894DEBF0FBECDBF29
:10228000DF91CF910C940D17FC01808191810C940A
:10229000C319CF93C82F882309F488C08238C1F4AA
:1022A0000E949F0F81FD82C089E30E94F1190E9464
:1022B000621A2FEF81EE94E0215080409040E1F7C8
:1022C00000C0000089E30E94F819CF910C94621AB3
:1022D0008338A1F40E949F0F80FD68C083E50E94AF
:1022E000F1190E94621A2FEF81EE94E02150804094
:1022F0009040E1F700C0000083E5E5CF8438A1F409
:102300000E949F0F82FD52C087E40E94F1190E9433
:10231000621A2FEF81EE94E0215080409040E1F767
:1023200000C0000087E4CFCF8CEF8C0F813AB8F467
:102330008C2F0E94C21F811139C06C2F8091000127
:10234000909101010E94AE1B882329F08C2F0E94DE
:10235000F8190E94621A8C2F0E94F119B6CF80E200
:102360008C0F883048F4C77081E001C0880FCA958F
:10237000EAF70E94191AA9CFEBE5EC0FE33040F41D
:10238000F0E0E358FE4F808190E0CF910C94F70F7E
:10239000C85AC73158F4EC2FF0E0EE0FFF1FE15B95
:1023A000FE4F80819181CF910C940D10CF910895B3
:1023B000882309F44BC0823871F40E949F0F81FF7B
:1023C00045C089E30E94F1190E94621A89E30E94C4
:1023D000F8190C94621A833859F40E949F0F80FFF9
:1023E00035C083E50E94F1190E94621A83E5EFCFA0
:1023F000843859F40E949F0F82FF28C087E40E940E
:10240000F1190E94621A87E4E2CF9CEF980F913A8B
:10241000F0F290E2980F983050F4877091E001C08C
:10242000990F8A95EAF7892F0E941F1AD2CF9BE550
:10243000980F933020F490E080E00C94F70F885AC6
:10244000873120F490E080E00C940D100895CF9334
:10245000C82F0E944911C93349F42FEF87EE93E04A
:10246000215080409040E1F700C000008C2FCF91B8
:102470000C94D811882321F00E94191A0C94621A26
:102480000895882321F00E941F1A0C94621A08955F
:10249000BF92CF92DF92EF92FF920F931F93CF9351
:1024A000DF936C01D62FC72FFC01058102950F70B9
:1024B000128111110E94361A0E940F1AE82E8823E9
:1024C00071F01123B1F080E28D0F883090F082E03E
:1024D0000E94AD1A0E940F1A91E0E82EE926BC2E48
:1024E000B2949FE0B922EB2DF0E0E65DF74D0C943D
:1024F000C627E12CF4CF0C2F0F70C07F11F002958E
:10250000007F1123A9F0002359F080E28D0F88305D
:1025100010F0D11109C0802F0E94191A0E94621A6E
:102520008D2F0E94491114C0802F0E94291AF6CFC6
:102530008D2F0E94D811002359F080E28D0F883032
:1025400010F0D1112CC0802F0E941F1A0E94621A15
:102550002B2D2850330B2430310520F40E949F0F7F
:102560000E946507EE2009F493C10E940B1A80FDBA
:102570008FC1F60112820E94051A0E949118C601AD
:102580000E9469140E94051ADF91CF911F910F914B
:10259000FF90EF90DF90CF90BF900C94B218802FF7
:1025A0000E942F1AD3CFFC2FFF70FF2EC07FC032A6
:1025B00019F0F29480EFF822DD2369F0D13049F16F
:1025C000112391F1002351F1F601858180FFA8CFFD
:1025D0008F70858323C0112381F0011106C00E94F2
:1025E000491A8F290E943A12B3CF0130C1F70E94D5
:1025F000491A8F290E944F1AABCF011106C00E94C1
:10260000581A8F2D0E944112A3CF013009F4A0CF98
:10261000F6CF112329F0063008F09ACF8F2DE2CFA4
:10262000053008F095CFEDCF002359F3D93349F4A5
:10263000FFEF27EE33E0F15020403040E1F700C0DB
:1026400000008D2F0E94D81183CF8C2F8695869500
:10265000837069F0813009F07BCF8D2F9C2F9370B0
:10266000111102C090E080E00E940D1071CF8D2FFB
:102670009C2F9370111102C090E080E00E94F70F30
:1026800067CF8C2F837009F041C0111161CF4D2F9E
:10269000429546954770440F440F0D2F0F7010E080
:1026A00030E020E0042E04C0000F111F221F331F52
:1026B0000A94D2F760E070E0CB01D4FF0FC06FE066
:1026C00070E080E090E004C0660F771F881F991FBC
:1026D0004A95D2F76095709580959095C695C69568
:1026E000C370602B712B822B932BC23049F058F4AE
:1026F000C13019F00E9443182BCF0E94311828CF07
:102700000E94551825CF0E942F1822CF869511239D
:1027100011F08C2F8170882309F41ACF4D2F429528
:1027200046954770440F440F0D2F0F7010E030E0B6
:1027300020E0042E04C0000F111F221F331F0A9433
:10274000D2F760E070E0CB01D4FF0FC06FE070E023
:1027500080E090E004C0660F771F881F991F4A959C
:10276000D2F76095709580959095C695C695C37083
:10277000602B712B822B932BC23049F058F4C1305F
:1027800019F00E940819E4CE0E94F618E1CE0E94CA
:102790001A19DECE0E946B18DBCECF70112329F000
:1027A0008C2F0E9491188D2F1DCF8D2F0E944112CA
:1027B0008C2F0E94B218CCCED23F89F160F4D03F6A
:1027C000C9F0D13F29F1112309F442C00111A8CE6B
:1027D0008C2F8F7121C0D33F39F1D43FA1F7112342
:1027E00069F1CF718C2F0E94911863E08C2F0E94A9
:1027F000981AAECE112341F0053008F0A9CE8C2FE7
:102800008F710E94D518A4CE063008F0A1CEF7CF64
:102810008C2F8F71112369F20E94911899CE8C2F01
:102820008F711123C9F3C5CF112329F08C2F8F711C
:102830000E947C188DCE0E9477188ACE81E00E947B
:10284000AD1A023008F484CE82E00E94AD1A80CE28
:10285000002359F0D93309F0F4CE8FEF97EEE3E07F
:1028600081509040E040E1F7EACE8C2F8F71A1CFEC
:102870004C2F4F706D2FC6010E94D5070E94A717DD
:1028800067CE4C2F4F706D2FC6010E94D80760CEC7
:10289000DF91CF911F910F91FF90EF90DF90CF903C
:1028A000BF9008950F931F93CF93DF93EC0168813E
:1028B00079818A810E94CD198C010E942C190E9475
:1028C0002E18B801CE01DF91CF911F910F910C947A
:1028D0004812CF93DF93EC018B819C81892B29F0E7
:1028E0008881998189238F3F19F4DF91CF910895D1
:1028F000CE010E947D078823C1F3CE010E945214AD
:10290000CE01DF91CF910C94E1060E94361A0E940D
:10291000461A0E94621A90E080E00E94F70F90E051
:1029200080E00C940D100E94FF190C9485140E94F5
:10293000261A0C949314E92FE295EF70E250EE30D2
:1029400070F4F0E0E65CF74D0C94C627803F19F078
:1029500020F4883E20F481E00895843FE1F380E094
:102960000895883EC0F3813FD1F7F5CF93FB8827C8
:1029700080F908950E94C3190C949B14CF93DF93A0
:1029800000D000D00F92CDB7DEB70F900F900F9010
:102990000F900F90DF91CF910895CF93DF9300D0E8
:1029A00000D000D0CDB7DEB726960FB6F894DEBFC4
:1029B0000FBECDBFDF91CF9108951F93CF93DF93CB
:1029C000C091AB0116E08091AC018C1304C0DF9183
:1029D000CF911F910895D0E01C9FF0011D9FF00D35
:1029E0001124E355FE4F40815181628173818481BE
:1029F00095810E94CD142196C770E5CF4091DD01ED
:102A00005091DE016091DF017091E0018091E10160
:102A10009091E2010C94CD141F93CF93DF9380919A
:102A2000E201807FA9F48091DF01882389F0809101
:102A3000AB01C091AC016091DD017091DE01A0910C
:102A4000E001B091E101D62FD72316E0C81304C0EE
:102A5000DF91CF911F91089590E0109711F0DF3F23
:102A600019F401968770F2CF189F9001199F300DCD
:102A70001124F901E355FE4F41814713F2CF408104
:102A80004613EFCF42814111ECCF438154814A1B61
:102A90005B0B483C510528F78091E2018F70806103
:102AA0008093E201F901EE54FE4F80818F708061C6
:102AB00080838DED91E00E946914DF91CF911F9189
:102AC0000C94DD14AF92BF92CF92DF92EF92FF92FF
:102AD0000F931F93CF93DF93CDB7DEB761970FB6F8
:102AE000F894DEBF0FBECDBF8C0185E0F801DE019A
:102AF0001D9601900D928A95E1F7F8014081518170
:102B0000E2808DEDC82E81E0D82E6091E0017091B9
:102B1000E1016115710509F461C19091DD01209118
:102B2000DE01892F82238F3F09F458C1A380B4802E
:102B3000F090DF01F501E61BF70BFF2009F4FCC064
:102B40008091E201382F307FE83CF10508F0B2C0F7
:102B5000311179C0FE2C251323C0941321C0E1103C
:102B60001FC08F7080618093E2010E94FE14C60135
:102B70000E9469148091E201F80185838F2D61968E
:102B80000FB6F894DEBF0FBECDBFDF91CF911F917E
:102B90000F91FF90EF90DF90CF90BF90AF9008958E
:102BA000AB2829F0842F85238F3F09F033C180E0C3
:102BB000F82FF170DF2E80FF3CC08091AB01209197
:102BC000AC0136E0821315C04D875E878D859E85EA
:102BD0000E94C319292F22952F702230F0F0243043
:102BE00018F59F70F1F0F8019581907FD1F4D12C08
:102BF0001EC090E0389FF001399FF00D1124E3557D
:102C0000FE4F6181651306C06081641303C0628159
:102C10006E110FC001968770D5CF9F7011F0882379
:102C200031F3805E883018F3C8010E946914FD2CCE
:102C3000A5CFEE2009F4A2CF8091E20181608093BC
:102C4000E201F12C9BCF251306C0941304C0F801B8
:102C5000EE2009F48DC04D875E878D859E850E948C
:102C6000BA14882319F1EE2009F18091E201803233
:102C700070F02091DD013091DE0138872F831986B5
:102C8000BB86AA868C87CE0107960E94691486E0CF
:102C9000F801ADEDB1E001900D928A95E1F70E9447
:102CA0000C150E94FE14FF24F39468CFC8010E9403
:102CB0006914F9CF311113C07A2DB98AA88A6E2D03
:102CC00089890E94BE148DED91E00E94691486E00E
:102CD000F60111928A95E9F70E94FE14B2CF2513EE
:102CE0000FC094130DC0E1100BC0F8018583C8011B
:102CF0000E94691486E0F60111928A95E9F73ECFA9
:102D00004D875E878D859E850E94BA14882371F257
:102D1000EE2061F28091E201803208F4B8CF209178
:102D2000DD013091DE013A8329831B82BD82AC82B2
:102D30008E83CE010196A9CFE83CF10508F041C091
:102D4000FE2CEE2009F4B2CF25132AC0941328C01C
:102D50008091E20180FD1BC0982F907FC1F0F801A7
:102D60008583903F31F0982F907F905F8F70892BF3
:102D70008583C8010E94691486E0F801ADEDB1E0D9
:102D800001900D928A95E1F70E94FE14F7CE86E03D
:102D9000F801ADEDB1E001900D928A95E1F7EECE2C
:102DA0004D875E878D859E850E94BA1481116FCFF5
:102DB0008091E20181608093E201C8010E94691460
:102DC000DDCE7A2DB98AA88A6E2D89890E94BE141B
:102DD00086E0F60111928A95E9F7D6CFEE2009F444
:102DE00065CF4D875E878D859E850E94BA14F82E2B
:102DF000882309F45BCF86E0F801ADEDB1E00190E6
:102E00000D928A95E1F78DED91E00E9444110E94A8
:102E10000C15BACF81E08E25CBCE1F93CF93DF93D5
:102E2000CDB7DEB72C970FB6F894DEBF0FBECDBF7F
:102E30004F83588769877A878B879C87CE0107964F
:102E40000E946215882369F08A859B85892B39F059
:102E50004F815885842F85238F3F09F071C016E07C
:102E60005FC086E0FE013796DE01119601900D925B
:102E70008A95E1F78A859B85892B89F38F819885CF
:102E800089238F3F61F32091AC0130E0C9010196A5
:102E9000877099274091AB014817190671F40E9479
:102EA00097141092AC011092AB0186E0EDEDF1E0C9
:102EB000DF011D928A95E9F7D2CF96E0929FD0016B
:102EC000939FB00D1124A355BE4FFE013196019082
:102ED0000D929A95E1F78093AC010E94DD14BFCF6B
:102EE000819FC001112483559E4F0E946215882343
:102EF000E9F0E091AB011E9FF0011124E355FE4F74
:102F00004081518162817381848195810E94CD14B9
:102F10008091AB0190E00196877099278093AB0177
:102F20008091AB019091AC018913DACF2C960FB64A
:102F3000F894DEBF0FBECDBFDF91CF911F910895F2
:102F400069857A858B859C850E94CD1488CFEF9208
:102F5000FF920F931F93CF93DF938C01892B81F006
:102F6000F12CEE24E394E8012196F8018491843752
:102F700070F4843008F05FC08130B1F08230A1F18C
:102F8000DF91CF911F910F91FF90EF9008958537BA
:102F900009F44CC008F43DC09CE7980F903780F7C7
:102FA0008F770E94D81149C00E5F1F4FFE01849198
:102FB00090E2980F983060F48770FE2D01C0FF0FEB
:102FC0008A95EAF78F2F0E94391A0E94621A02C06E
:102FD0000E9449118F2D815030F2EFE9FFE03197C7
:102FE000F1F700C00000F7CF0E5F1F4FFE01849184
:102FF00090E2980F983050F48770FE2D01C0FF0FBB
:103000008A95EAF78F2F0E943F1ADFCF0E94D811CE
:10301000E1CF0E5F1F4FFE01C491C150D8F28FE97E
:103020009FE00197F1F700C00000F7CF0E5F1F4F40
:10303000FE01F490CFCF0E9449118E01CBCF0895AD
:103040000C941F180E94201860930F0270931002B6
:1030500080931102909312020C94851408950C949D
:1030600022180F931F9300910F02109110022091CC
:10307000110230911202602B712B822B932B1F9126
:103080000F910C9422180F931F9300910F0210912F
:1030900010022091110230911202602371238223C9
:1030A00093231F910F910C9422180F931F9300915B
:1030B0000F0210911002209111023091120260272C
:1030C0007127822793271F910F910C9422180C943B
:1030D0001F180C9467180E94691860930B02709374
:1030E0000C0280930D0290930E020C94851460E004
:1030F00070E0CB010C946B180F931F9341E050E0EC
:1031000060E070E08A019B0104C0000F111F221FC4
:10311000331F8A95D2F7C901B8011F910F910C9402
:103120006B180F931F9341E050E060E070E004C023
:10313000440F551F661F771F8A95D2F780910B02A7
:1031400090910C02A0910D02B0910E028A019B0198
:10315000082B192B2A2B3B2BC901B8011F910F916A
:103160000C946B180F931F9341E050E060E070E007
:1031700004C0440F551F661F771F8A95D2F7CB01F5
:10318000BA01609570958095909500910B02109111
:103190000C0220910D0230910E02602371238223D4
:1031A00093231F910F910C946B180F931F9341E081
:1031B00050E060E070E004C0440F551F661F771FA9
:1031C0008A95D2F780910B0290910C02A0910D028A
:1031D000B0910E028A019B01082719272A273B2755
:1031E000C901B8011F910F910C946B180F931F9395
:1031F00000910B0210910C0220910D0230910E02F1
:10320000602B712B822B932B1F910F910C946B18B9
:103210000F931F9300910B0210910C0220910D024D
:1032200030910E0260237123822393231F910F910B
:103230000C946B180F931F9300910B0210910C02CA
:1032400020910D0230910E0260277127822793276B
:103250001F910F910C946B1808952CE0929F800D94
:103260001124982F977041E001C0440F9A95EAF716
:1032700086958695869595E0899FF0011124ED51FC
:10328000FE4F90E080E070E05191DF0111979B01CB
:10329000082E02C0369527950A94E2F721702195F1
:1032A0002527242325272C9301968530910561F746
:1032B00008952CE0929F800D1124982F9770869589
:1032C0008695869525E0829FF0011124ED51FE4FF1
:1032D00050E040E080E0219130E0092E02C03695B8
:1032E00027950A94E2F721703327042E01C0220F9C
:1032F0000A94EAF7822B4F5F5F4F4530510559F72B
:103300000895BF92CF92DF92EF92FF920F931F9397
:10331000CF93DF938C01C0900B02D0900C02E09011
:103320000D02F0900E0280910F0290911002A09178
:103330001102B0911202C82AD92AEA2AFB2ACFE147
:10334000D0E0BC2ED701C6010C2E04C0B695A795BF
:10335000979587950A94D2F780FD0EC0219788F73C
:10336000B12C8B2DDF91CF911F910F91FF90EF909A
:10337000DF90CF90BF900895B8018C2F0E94F50781
:10338000019761F3EECFCF93DF93EC010E94811997
:10339000BE01DF91CF910C94F5071F93CF93DF937C
:1033A000EB019091AA01992331F0CB01DF91CF91EC
:1033B0001F910C94C319882379F0CB010E948119C5
:1033C000182F682FCE010E942D19BE01812FDF9189
:1033D000CF911F910C94F507CB010E945919182F1A
:1033E000F4CF682F80910001909101010C94E41BAF
:1033F000682F80910001909101010C94E61B80914F
:103400000001909101010C94E81B809113028595B5
:103410008595859508958091130287700895909100
:103420001302977081E009F480E0089580911F02F3
:10343000089590911F02892B80931F020895809513
:1034400090911F02982390931F02089510921F02DB
:10345000089590911E02892B80931E0208958095F5
:1034600090911E02982390931E02089510921E02BE
:10347000089590911D02892B80931D0208958095D7
:1034800090911D02982390931D02089510921D02A1
:10349000089580911402089508950C944C1A909107
:1034A0001402981721F0809314020C944D1A089579
:1034B00080911402882329F01092140280E00C9469
:1034C0004D1A0895E0910001F091010180911F02D1
:1034D0008083E0910001F0910101808190911E02B2
:1034E000892B8083E0910001F0910101808190910E
:1034F0001D02892B808390911402992381F0E09121
:103500000001F09101018081892B8083809100016D
:10351000909101010E949C1B81110E94581A809178
:103520000001909101010C94AB0F08950C94951A31
:1035300098E0899F90011124622B609313020E94EE
:103540009118809113028595859585950C94961A0E
:103550001092130280E00C94961A909113028095B9
:10356000892380931302282F277071F4282F082EA7
:10357000000C330B9217130639F0859585958595C8
:103580000E94B2180C94A81A089590939101809308
:1035900090010895829590E09C01220F331F220F25
:1035A000331F2C7C95958795959587958373282B4C
:1035B00030E0C901880F991F8A7A359527952575BE
:1035C000822B0895CF93DF93D92F0E94CA1AC82F58
:1035D0008D2F0E94CA1A9C2FDF91CF91089590E001
:1035E00080E00E94EE2721E08C3E9E4F09F020E013
:1035F000822F089582E090E00C94E62783E090E02B
:103600000C94E627CF9384E090E00E94E627C82F31
:1036100081E290E00E94E627982F8C2FCF910895A9
:10362000CF93C92F682F84E090E00E94F4276C2F7D
:1036300081E290E0CF910C94F42786E090E00C9426
:10364000E627682F86E090E00C94F427AB01BC01DC
:103650008FE090E00C940628AB01BC0183E190E080
:103660000C94062860E070E0CB010C942C1B60E009
:1036700070E0CB010E94261B0C94321B6CEE7EEF97
:1036800090E080E00E94122860E082E090E00E94DA
:10369000F42760E083E090E00E94F42710920F028C
:1036A00010921002109211021092120260E084E057
:1036B00090E00E94F42760E081E290E00E94F4270D
:1036C00060E085E090E00E94F42760E086E090E012
:1036D0000E94F4276FEF87E090E00E94F42740E01B
:1036E00050E0BA0188E090E00E94062860E08DE09A
:1036F00090E00E94F42740E050E0BA0188E190E0B9
:103700000E94062860E087E190E00E94F42740E0F4
:1037100050E0BA018CE190E00E94062860E080E26F
:1037200090E00E94F4270C94371B0C943E1B682FEA
:103730008EE090E00C94F4279C012E5F3F4FAC018B
:10374000485F5F4F80E02417350709F40895F901B9
:1037500091919F019923B9F38F5FF5CF662349F0CB
:10376000FC01329608962191261729F0E817F907EF
:10377000D1F780E0089581E008959C01FC01329624
:103780009FEF80E04191461751F09F3F19F441119E
:1037900001C0982F8F5F8630A9F79F3F09F40895E5
:1037A000290F311D97FD3A95F90162830895FC01B7
:1037B000329608962191261303C0DF0111971C92BF
:1037C000E817F907B9F708950C94BD1B0C94D71BA3
:1037D000029626E0FC0111922A95E9F708950895D2
:1037E00008950C94F01B0E94F11B809150028430CC
:1037F00061F11092210288E190E020E40FB6F89484
:10380000A895809360000FBE2093600080E00E9426
:10381000190D80E00E9465070E94F11B83B7817F2C
:10382000846083BF83B7816083BF7894889583B7B2
:103830008E7F83BF0FB6F894A89580916000886151
:1038400080936000109260000FBE08950895CF939A
:103850000E94EF1B0E949D0A0E94261CC0E08C2F34
:103860000E94E109892B31F4CF5FC530C1F780E0B8
:10387000CF91089581E0FCCF08950C943C1C0E94E8
:1038800097140E945E0B0E949F0F0E9465070C9484
:103890003D1C1F921FB61F9211248F939F93AF93CD
:1038A000BF9380912102811113C0809146029091B3
:1038B0004702A0914802B09149024196A11DB11D55
:1038C0008093460290934702A0934802B093490226
:1038D000BF91AF919F918F911F901FBE1F90189520
:1038E00082E084BD93E095BD9AEF97BD80936E0012
:1038F00008952FB7F8948091460290914702A091C5
:103900004802B09149022FBF08952FB7F8946091F3
:1039100046027091470280914802909149022FBF60
:1039200008959C014FB7F894809146029091470208
:10393000A0914802B09149024FBF821B930B08959A
:1039400078941F921FB61F9211248F939F93AF9369
:10395000BF938091460290914702A0914802B09196
:1039600049020196A11DB11D809346029093470222
:10397000A0934802B0934902BF91AF919F918F915C
:103980001F901FBE1F90189581E08093E00080E299
:103990008093D8001092C9008FE19EE40197F1F75F
:1039A00000C0000087E090EBDC0180935902909307
:1039B0005A02A0935B02B0935C0288E19CE00FB6D0
:1039C000F894A895809360000FBE90936000FFCF9D
:1039D0000E94EF1A811102C00E94951B0E94FA1AE0
:1039E000809320020E94021B90934B0280934A0214
:1039F0000E94FE1A682F70E090E080E00C942F186F
:103A0000CF93C82F1F928F9387E094E09F938F935B
:103A10000E94700661E070E080E090E004C0660FF4
:103A2000771F881F991FCA95D2F70E942F180F90F1
:103A30000F900F900F90CF910C949714CF93DF932A
:103A40008B3109F43AC208F0DCC18B3009F4F8C1BB
:103A500008F0A6C1863009F406C248F4853009F49E
:103A6000DEC186EE98E00E94D70580E00CC2873068
:103A700009F40CC28830A9F785E899E00E94D705BF
:103A800086ED98E00E94D7050E94FE1A1F928F9340
:103A900083ED98E09F938F930E94700681ED98E0EC
:103AA0000E94D7050E94FA1AC82F8EEB98E00E9458
:103AB000D7051F92CF9389EB98E09F938F930E9435
:103AC000700687EB98E00E94D7058DEA98E00E9487
:103AD000D7058C2F81701F928F938AEA98E09F936D
:103AE0008F930E94700688EA98E00E94D7058EE9BD
:103AF00098E00E94D705C1FB882780F91F928F9319
:103B00008BE998E09F938F930E94700689E998E073
:103B10000E94D7058DE898E00E94D705C2FB882750
:103B200080F91F928F938AE898E09F938F930E9469
:103B3000700688E898E00E94D7058FE798E00E9419
:103B4000D705C3FBCC27C0F91F92CF938CE798E031
:103B50009F938F930E9470068AE798E00E94D70592
:103B60000E94021BEC0186E698E00E94D705DF93D5
:103B7000CF9381E698E09F938F930E9470068FE524
:103B800098E00E94D70586E498E00E94D7058C2F24
:103B900081701F928F9383E498E09F938F930E948C
:103BA00070068DB79EB780960FB6F8949EBF0FBE75
:103BB0008DBF81E498E00E94D7058AE298E00E94D8
:103BC000D705C1FB882780F91F928F9387E298E081
:103BD0009F938F930E94700685E298E00E94D7051C
:103BE00083E198E00E94D7058D2F81701F928F93FB
:103BF00080E198E09F938F930E9470068EE098E09A
:103C00000E94D7058CEF97E00E94D705D695D1701A
:103C10001F92DF9389EF97E09F938F930E94700626
:103C200087EF97E00E94D70585EE97E00E94D705C1
:103C3000C2FB882780F91F928F9382EE97E09F93B3
:103C40008F930E94700680EE97E00E94D7058EEC5D
:103C500097E00E94D705C3FB882780F91F928F93B6
:103C60008BEC97E09F938F930E94700689EC97E00E
:103C70000E94D7058FEB97E00E94D705C4FB8827E9
:103C800080F91F928F938CEB97E09F938F930E9404
:103C900070068AEB97E00E94D70588EA97E00E94B9
:103CA000D705C5FB882780F91F928F9385EA97E097
:103CB0009F938F930E94700683EA97E00E94D70536
:103CC00087E897E00E94D705C6FB882780F91F92F6
:103CD0008F9384E897E09F938F930E9470068DB72F
:103CE0009EB780960FB6F8949EBF0FBE8DBF82E838
:103CF00097E00E94D7058AE797E00E94D705C7FBA7
:103D0000CC27C0F91F92CF9387E797E09F938F93BB
:103D10000E94700685E797E00E94D7050E941D1B50
:103D2000C82F8EE597E00E94D7051F92CF9389E5B3
:103D300097E09F938F930E94700687E597E00E941B
:103D4000D7058DE497E00E94D7058C2F81701F92D4
:103D50008F938AE497E09F938F930E94700688E484
:103D600097E00E94D7058FE397E00E94D705C6959C
:103D7000C695C6951F92CF938CE397E09F938F9340
:103D80000E9470068AE397E00E94D7058DB79EB720
:103D900040960FB6F8949EBF0FBE8DBF81E073C0F2
:103DA000803109F4A2C080F48E3009F05ACE90918F
:103DB0002002892F8B7F92FF84608093200282FFF4
:103DC00091C081E199E085C0863109F49EC08931B6
:103DD00009F047CE8DE695E00E94D70585E495E091
:103DE0000E94D70580E095E00E94D7058DEC94E015
:103DF0000E94D70580EA94E00E94D70585E794E009
:103E000021C08A3249F190F4873211F128F48E31C1
:103E100008F427CE8D511DC0893209F022CE84E5E9
:103E200099E00E94D7050E946E07B8CF833468F4EA
:103E30008A3308F0A1C0853359F0883309F011CED8
:103E400087E995E00E94D705A9CF833409F009CE10
:103E500080E00E94001DA2CF84E799E00E94D70570
:103E60000E94951B9BCF80912002807F809320022F
:103E70008CE795E00E94D70580E799E00E94D7057E
:103E800081E080932202DF91CF91089590912002EA
:103E9000892F8E7F90FF81608093200280FF03C076
:103EA00088E499E0CFCF8BE399E00E94D705809119
:103EB0002002817F8093200271CF90912002892F70
:103EC0008D7F91FF82608093200281FF08C08EE287
:103ED00099E00E94D705809120028160EBCF80E2BB
:103EE00099E0B0CF81E099E0ADCF90912002892F89
:103EF000877F93FF88608093200283FF03C085EF54
:103F000098E0E7CF88EE98E09DCF87E694E00E94A6
:103F1000D7050E949F0F1F928F938DE494E09F938B
:103F20008F930E94700680910C011F928F9386E3FD
:103F300094E09F938F930E94700680912F021F92AE
:103F40008F9383E294E09F938F930E9470060E9468
:103F5000851C9F938F937F936F938CE094E09F9346
:103F60008F930E9470068DB79EB742960FB6F89455
:103F70009EBF0FBE8DBF12CF89536BCF80E00895D7
:103F80000C94BE1FCF93C82F80912202882331F05A
:103F9000813099F01092220280E00DC00E94161A22
:103FA0008232D1F78C2F0E94BE1F811119C08C2F35
:103FB0000E941E1D8170CF9108950E94161A8232B0
:103FC00089F38C2F0E94C01F811119C0C431C9F020
:103FD00050F4CB3061F081E094E00E94D70513C02B
:103FE00081E090E0E7CFC93261F0C833A1F78CE7F8
:103FF00095E00E94D70583E094E00E94D70581E018
:10400000D9CF1092220280E0D5CF80912E02089560
:1040100008959FB7F894109225029FBF9091500287
:10402000943009F048C02091E9002F703091EC00E5
:10403000932F917030FD90E8922B23E02093E900BC
:104040002091EB0020FF34C02091EE0027FF30C00C
:1040500020912302222321F02091E80025FF28C08F
:104060001092230226E03091E80035FF14C08093BF
:10407000F1008091E80085FD27C08091E80080FF75
:10408000FCCF8091E8008E778093E8009F7090933A
:10409000E90080E0089530915002343049F43091C5
:1040A000EB0035FD05C0215041F481E080932302EF
:1040B0009F709093E9008FEF0895EFE9FFE031974B
:1040C000F1F700C00000CFCF8FB7F89421E0209324
:1040D00025028FBFDBCFCF93DF9300D00F92CDB7F8
:1040E000DEB790915002943019F589837B836A83FF
:1040F00082E08093E9008FEF9091E800815095FD78
:1041000006C095ED9A95F1F700008111F5CF8091E9
:10411000E80085FF0DC050E040E063E070E0CE01B4
:1041200001960E94E4228091E8008E778093E80057
:104130000F900F900F90DF91CF910895CF93DF9361
:10414000EC010E94C722823011F0843031F4BE01AC
:1041500084E0DF91CF910C946B20DF91CF91089593
:10416000BC0183E00C946B20CF93DF93EC010E94A1
:10417000C722823011F0843039F581E08093E90064
:104180008FEF9091E800815095FD06C095ED9A95CE
:10419000F1F700008111F5CF8091E80085FF14C090
:1041A00050E040E068E070E0CE010E94E42280919F
:1041B000E8008E778093E80088E0FE01A6E2B2E096
:1041C00001900D928A95E1F7DF91CF91089585EBEB
:1041D00099E00E94D70580914F02811109C00E9489
:1041E00074240E94D1248091E20084608093E200D4
:1041F000089581EB99E00E94D70510924F0208952F
:104200008DEA99E00C94D70589EA99E00C94D705DA
:1042100085EA99E00E94D7050C943F1C2091240266
:104220002F5F822F62E30E948427992319F0209345
:104230002402089510922402809125028823F1F02F
:10424000809150028430C1F49091E9009F702091D8
:10425000EC00822F817020FD80E8892B93E0909301
:10426000E9009091EB0090FF04C09091EE0097FD63
:1042700008C08F708093E900109225020895109273
:10428000F1009091E80095FDFACF9091E80090FF41
:10429000F0CF9091E8009E779093E800EACF42E05B
:1042A00061EC81E00E94F02342E261EC82E00E9436
:1042B000F02342E261EC83E00C94F02380915202FF
:1042C000833009F45FC030F48130C1F1823009F4E9
:1042D0009BC008958A3009F487C08B3009F46DC003
:1042E000893009F04EC080915102813209F049C0F5
:1042F0008091550290915602029708F042C0809139
:10430000E800877F8093E8008091E80082FF35C055
:104310009091F3008091F200029729F48091F100CE
:104320008B7F813021F48091F10080932E02809167
:10433000E8008B778093E8000C942424809151024C
:10434000813AF9F48091E800877F8093E8008091BA
:10435000550290915602892B61F468E086E292E062
:1043600070E00E9433238091E8008B778093E8000F
:10437000089560E090E080E0F3CF809150028111D9
:10438000C3CF089580915102813AD9F780915502A7
:1043900090915602892BA9F78091E800877F80933E
:1043A000E8008091E80080FFFCCF80910C018093B1
:1043B000F1008091E8008E77BDCF8091510281326B
:1043C00001F78091550290915602892BD1F6809188
:1043D000E800877F8093E8000E94242480915302A4
:1043E00080930C010C94971480915102813249F60C
:1043F0008091E800877F8093E8000E9424248091C8
:10440000540280932F02089580915102813A09F05D
:10441000B8CF8091E800877F8093E8008091E80022
:1044200080FFFCCF80912F02C2CF84B7877F84BFEB
:104430000FB6F894A8958091600088618093600021
:10444000109260000FBE80E890E00FB6F894809361
:104450006100909361000FBE0E9431100E9474248D
:104460000E94D1248091E20084608093E20089E080
:1044700090E20E94C51A78940E9459270E943B102E
:1044800082E091E00E949A0F84E999E00E94D705AA
:1044900080915002853019F00E946D10F9CF80E9AB
:1044A00099E00E94D7050E94F31B80914E02882359
:1044B00079F30E94271C882359F30E94CE22E8CF6B
:1044C0000C946222292F33272330310521F168F41F
:1044D0002130310509F449C02230310509F44AC0C0
:1044E00090E080E030E020E029C02132310581F108
:1044F00022323105A9F76330710590F7FB01EE0F09
:10450000FF1FED57FE4F2081318160587E4FFB0128
:10451000808190E013C099278130910599F0009730
:1045200041F08230910589F00397D1F6E9EBF9E08B
:1045300002C0EFEFF9E0849190E09F01FA0131832E
:1045400020830895EDEDF9E0F6CFEFEBF9E0F3CF3E
:104550006330710528F6660F771FFB01E757FE4FA2
:104560002081318189E090E0E9CF82E190E02EE581
:104570003AE0E4CF8BE590E023E03AE0DFCF8091B2
:104580005002843011F482E0089581E00895809112
:104590003002811102C00C94BF22089580E189BDD0
:1045A00082E189BD09B400FEFDCF8091D8008F7DE6
:1045B0008093D8008091E00082608093E000809139
:1045C000E00081FDFCCF0895AF92BF92CF92DF92C1
:1045D000FF920F931F93CF93DF936C01EB018A013E
:1045E0000E944324F82E811123C00115110539F0D2
:1045F000F80180819181C81BD90BC80ED91EB12C3E
:10460000A12C2097A9F08091E80085FD22C080911F
:10461000E8008E778093E80001151105A1F0F801FC
:1046200080819181A80EB91EB182A08285E0F82E0A
:104630008F2DDF91CF911F910F91FF90DF90CF9041
:10464000BF90AF9008950E9443248823D1F2F82EA2
:10465000EFCFF60181916F018093F1002197FFEF79
:10466000AF1ABF0ACECFFC01809157029091580239
:1046700086179707A0F06115710529F49091E8005D
:104680009E779093E80090E06115710551F49111C7
:1046900008C08091E80082FF34C080E00895BC012A
:1046A000F2CF809150028823C1F18530C1F1809111
:1046B000E80083FD30C08091E80082FDEACF809160
:1046C000E80080FFE1CF8091F3002091F200382FC5
:1046D0006115710519F02830310558F091E0283046
:1046E000310509F090E02091E8002E772093E80052
:1046F000CBCF81918093F100615071092F5F3F4FC3
:10470000E7CF80915002882341F0853041F08091BD
:10471000E80083FFBECF81E0089582E0089583E042
:104720000895FC01809157029091580286179707CF
:10473000A0F06115710529F48091E8008E778093CF
:10474000E80090E06115710551F4911108C0809165
:10475000E80082FF35C080E00895BC01F2CF80916F
:1047600050028823C9F18530C9F18091E80083FDAA
:1047700031C08091E80082FDEACF8091E80080FF9F
:10478000E1CF8091F3002091F200382F611571057F
:1047900019F02830310558F091E02830310509F042
:1047A00090E08091E8008E778093E800CBCF8491F1
:1047B0008093F1003196615071092F5F3F4FE6CF32
:1047C00080915002882341F0853041F08091E800CB
:1047D00083FFBDCF81E0089582E0089583E00895CE
:1047E000982F973028F08F708093E90081E008952A
:1047F0009093E900242F762F50E0981731F07091B4
:10480000EC002091ED005091F00021FD02C09F5F6F
:10481000E8CF3091EB003E7F3093EB003091ED001C
:104820003D7F3093ED003091EB0031603093EB0031
:104830007093EC002093ED005093F0002091EE0077
:1048400027FDE5CF80E008958091510287FF13C0D6
:104850008091E80082FF06C08091E8008B7780930A
:10486000E80004C0809150028111F2CF0895809138
:1048700050028823D9F38091E80080FFF8CF80911F
:10488000E8008E77ECCF2091E4003091E50095E6CA
:10489000A9012091EC00822F817020FF06C0809139
:1048A000E80080FF06C080E008952091E80022FD26
:1048B0001AC080915002882389F0853089F0809158
:1048C000EB0085FD0FC02091E4003091E500421718
:1048D0005307F9F29150E1F684E0089582E00895DB
:1048E00083E0089581E008950E94E2240E94EA2472
:1048F000E0EEF0E0808181608083E8EDF0E080818F
:104900008F77808319BCA7EDB0E08C918E7F8C935C
:1049100080818F7E808310924F0208950F931F93A2
:10492000CF93DF930E94E2240E94EA24C8EDD0E0F6
:1049300088818F77888388818068888388818F7D4C
:10494000888319BC1092500210924C0210924E02B1
:1049500010924D0200EE10E0F80180818B7F808381
:1049600088818160888342E060E080E00E94F023DB
:10497000E1EEF0E080818E7F8083E2EEF0E08081E6
:1049800081608083808188608083F80180818E7F50
:104990008083888180618883DF91CF911F910F91FF
:1049A0000895E8EDF0E080818F7E8083E7EDF0E010
:1049B00080818160808384E082BF81E080934F02A8
:1049C0000C948E24E8EDF0E080818E7F808310923D
:1049D000E20008951092DA001092E10008951F920B
:1049E0000F920FB60F9211242F933F934F935F9323
:1049F0006F937F938F939F93AF93BF93EF93FF93A7
:104A00008091E10082FF0BC08091E20082FF07C02D
:104A10008091E1008B7F8093E1000E940E218091C4
:104A2000DA0080FF19C08091D80080FF15C0809106
:104A3000DA008E7F8093DA008091D90080FF96C0E3
:104A400080E189BD82E189BD09B400FEFDCF81E02E
:104A5000809350020E94E7208091E10080FF19C0FE
:104A60008091E20080FF15C08091E2008E7F8093EC
:104A7000E2008091E20080618093E2008091D800A2
:104A800080628093D80019BC85E0809350020E9418
:104A900004218091E10084FF2BC08091E20084FF1B
:104AA00027C080E189BD82E189BD89B5982F9170C9
:104AB00080FFFBCF8091D8008F7D8093D8008091BC
:104AC000E1008F7E8093E1008091E2008F7E8093F1
:104AD000E2008091E20081608093E20080914C02CC
:104AE000882309F449C084E0809350020E94082181
:104AF0008091E10083FF29C08091E20083FF25C0FF
:104B00008091E100877F8093E10082E080935002F2
:104B100010924C028091E1008E7F8093E1008091A1
:104B2000E2008E7F8093E2008091E20080618093BA
:104B3000E20042E060E080E00E94F0238091F0001B
:104B400088608093F0000E940021FF91EF91BF9157
:104B5000AF919F918F917F916F915F914F913F9115
:104B60002F910F900FBE0F901F90189519BC1092A7
:104B700050020E94F92070CF8091E30087FD93E0FE
:104B800090935002B3CF1F920F920FB60F92112441
:104B90002F933F934F935F936F937F938F939F9345
:104BA000AF93BF93CF93DF93EF93FF93D091E9003F
:104BB000DF708091EC00C82FC17080FDC0E81092BA
:104BC000E9008091F000877F8093F00078940E9444
:104BD00007261092E9008091F00088608093F00031
:104BE000CD2BCF70C093E900FF91EF91DF91CF9172
:104BF000BF91AF919F918F917F916F915F914F91F5
:104C00003F912F910F900FBE0F901F9018951F93FB
:104C1000CF93DF93CDB7DEB7AA970FB6F894DEBF78
:104C20000FBECDBF81E592E02091F100FC01219300
:104C3000CF01F2E089359F07B9F70E945E2180918C
:104C4000E80083FF1EC180915102909152029A3078
:104C500008F017C1E92FF0E0E85BF74D0C94C62788
:104C6000803899F0823809F00CC1809155028F701C
:104C7000873008F006C18093E9008091EB0085FB46
:104C8000882780F91092E90006C080914D0290912A
:104C90004E02911182609091E800977F9093E80016
:104CA0008093F1001092F1008091E8008E77E5C0CA
:104CB000882309F4D3C0823009F0E3C08091530205
:104CC0008111D6C0809155028F702FEF280F2630AA
:104CD00008F0D7C08093E9002091EB0020FFC8C006
:104CE000933031F48091EB0080628093EB00C0C080
:104CF0009091EB0090619093EB0021E030E001C0D7
:104D0000220F8A95EAF72093EA001092EA00809138
:104D1000EB008860EACF8111B4C0109153021F7775
:104D20008091E3008078812B8093E3008091E800FC
:104D3000877F8093E8000E9424248091E80080FF10
:104D4000FCCF8091E30080688093E30082E0111142
:104D500083E08093500295C08058823008F091C063
:104D600080915302909154028C3D23E09207A1F56B
:104D700083E08A838AE289834FB7F894DE01139631
:104D800020E03EE051E2E32FF0E050935700E49141
:104D900020FF03C0E295EF703F5FEF708E2F90E031
:104DA000EA30C0F0C7968D939D932F5F243159F759
:104DB0004FBF8091E800877F8093E8006AE270E04F
:104DC000CE0101960E9433238091E8008B77809377
:104DD000E80057C0C096E7CF609155027091560227
:104DE000AE014F5F5F4F0E946022BC01892B09F426
:104DF00048C09091E800977F9093E80089819A815C
:104E00000E949123E1CF8038E1F58091E800877F0F
:104E10008093E80080914C028093F10045CF81118E
:104E200030C090915302923060F58091E800877F06
:104E30008093E80090934C020E94242480914C02BD
:104E4000882311F084E005C08091E30087FDFACF4C
:104E500081E0809350020E944F2113C08091530241
:104E6000813079F481E0933009F080E080934E0244
:104E70001092E9008091E800877F8093E8000E940B
:104E800024248091E80083FF0AC08091E800877F96
:104E90008093E8008091EB0080628093EB00AA96FB
:104EA0000FB6F894DEBF0FBECDBFDF91CF911F913B
:104EB0000895CF93809150028823A1F0C091E9001A
:104EC000CF709091EC00892F817090FD80E8C82B05
:104ED0001092E9008091E80083FD0E940726CF70C0
:104EE000C093E900CF910895DB018F939F930E94B7
:104EF000DB27BF91AF91A29F800D911DA39F900DC5
:104F0000B29F900D11240895991B79E004C0991F58
:104F1000961708F0961B881F7A95C9F78095089513
:104F2000AA1BBB1B51E107C0AA1FBB1FA617B707CF
:104F300010F0A61BB70B881F991F5A95A9F78095EB
:104F40009095BC01CD010895A1E21A2EAA1BBB1BAE
:104F5000FD010DC0AA1FBB1FEE1FFF1FA217B30745
:104F6000E407F50720F0A21BB30BE40BF50B661F5B
:104F7000771F881F991F1A9469F76095709580951F
:104F800090959B01AC01BD01CF010895EE0FFF1F6D
:104F90000590F491E02D0994A29FB001B39FC00148
:104FA000A39F700D811D1124911DB29F700D811D55
:104FB0001124911D08950E94CC27A59F900DB49FA8
:104FC000900DA49F800D911D11240895F999FECF95
:104FD00092BD81BDF89A992780B50895A8E1B0E007
:104FE00042E050E00C941A28262FF999FECF92BD8A
:104FF00081BDF89A019700B4021639F01FBA20BD9E
:105000000FB6F894FA9AF99A0FBE08950396272FCF
:105010000E94F5270E94F427252F0E94F527242FB0
:105020000C94F5270196272F0E94F5270C94F4275E
:10503000DC01CB01FC01F999FECF06C0F2BDE1BD58
:10504000F89A319600B40D9241505040B8F7089547
:10505000F894FFCF7B127B12D312D3122513A81220
:10506000A812A8124113CD13DC13DC133814A812B4
:10507000A8124114A614A614AF14AF14B114AF149F
:10508000AF14AF14A614A614B614AF14AF14B6140C
:10509000302658264127582641278B26AC26412703
:0450A00003270F27AC
:1050A40015020520B4200820B0209E2001E200E96A
:1050B40000EA00B500B600B700CD008301CC008A39
:1050C40001920194012102230224022502260227CF
:1050D400022A02B300B4006F007000818283F1F4ED
:1050E40031323337919294969734C6F0F5F6F7E25D
:1050F40000E900EA00B500B600B700CD008301CC9A
:10510400008A01920194012102230224022502262D
:105114000227022A02B300B4006F00700081828368
:10512400403222C40A920A700A150A2E0A470A005B
:00000001FF
