:100000000C9409060C9450060C9450060C9450065F
:100010000C9450060C9450060C9450060C94500608
:100020000C9450060C9450060C94DF250C94B126C9
:100030000C94101D0C9450060C9450060C94500611
:100040000C9450060C94D70C0C9450060C9450064B
:100050000C94FB0C0C94691D0C9450060C945006E7
:100060000C9450060C9450060C9450060C945006B8
:100070000C9450060C9450060C9450060C945006A8
:100080000C9450060C9450060C9450060C94500698
:100090000C9450060C9450060C9450060C94500688
:1000A0000C9450060C9450060C945006D212D212A6
:1000B0000413041351138514851485146F13041449
:1000C000151415147514851485147E142115211525
:1000D000331533152A15331533153315211521150D
:1000E0002F15331533152F151E2745273D28452776
:1000F0003D289127B4273D280B281A282B001400EF
:100100001A000800150017001C0018000C0012004F
:1001100013002A00290004001600070009000A0045
:100120000B000D000E000F0033003400E1001D0035
:100130001B000600190005001100100036003700F2
:1001400038002800C05CE000E200E30003512C000E
:100150002C0004515000510052004F0000000000DC
:10016000000000000000000000000000000000008F
:10017000000000002B0014001A00090013000A0000
:100180000D000F0018001C0033002A002900040095
:1001900015001600170007000B00110008000C00E6
:1001A00012003400E1001D001B00060019000500CC
:1001B0000E0010003600370038002800C05CE00058
:1001C000E200E30003512C002C00045150005100C8
:1001D00052004F000000000000000000000000007E
:1001E0000000000000000000000000002B003400B0
:1001F0003600370013001C0009000A000600150035
:100200000F002A00290004001200080018000C004A
:1002100007000B001700110016003800E100330042
:1002200014000D000E001B00050010001A0019003C
:100230001D002800C05CE000E200E30003512C0038
:100240002C0004515000510052004F0000000000EB
:10025000000000000000000000000000000000009E
:100260000000000035021E021F02200221022202AD
:10027000230224022502260227022A004C003A000B
:100280003B003C003D003E003F002D022E022F02AD
:1002900030023102010040004100420043004400AE
:1002A0004500320264024A004D00010001000100D5
:1002B000010001000100010001000651AB00AA008D
:1002C000A900AE00000000000000000000000000D7
:1002D00000000000000000000000000035001E00CB
:1002E0001F002000210022002300240025002600FA
:1002F00027002A004C003A003B003C003D003E0035
:100300003F002D002E002F00300031000100400082
:1003100041004200430044004500320064004B00AD
:100320004E00010001000100010001000651010022
:1003300001000100AB00AA00A900AE00000000000F
:1003400000000000000000000000000000000000AD
:10035000000000001E001E001E001E001E001E00E9
:100360001E001E001E001E001E001E0000001400C5
:100370001A000800150017001C0018000C001200DD
:1003800013002F00000004001600070009000A00F7
:100390000B000D000E000F00330034001050000061
:1003A000000006001900000000001100100000000D
:1003B000000000000000000000000000000000003D
:1003C0000000000000000000000000000100005CD0
:1003D000015CC25CC35CC55CC65CC75CC85CC95CD4
:1003E000CA5C4C0001000100295C1D5C1E5C135CB2
:1003F0000A5C0052015202521550010001002B5CB0
:100400002A5C265C275C2C5C2D5C0000000001004F
:1004100001000100010001000100010001000100D4
:1004200001000100010001000100010000000000C6
:1004300000000000000000000000000000000000BC
:100440000000000044454255473A206469736162E8
:100450006C65642E0A0044454255473A20656E613A
:10046000626C65642E0A000A002530313662003A5B
:10047000200025303258000A722F63203031323389
:100480003435363738394142434445460A006261C3
:10049000636B6C6967687420737465703A202575A6
:1004A0000A006261636B6C696768742064697361D8
:1004B000626C650A006261636B6C696768742065D1
:1004C0006E61626C650A006261636B6C6967687477
:1004D00020746F67676C653A2025750A0062616356
:1004E0006B6C696768742064656372656173653AF3
:1004F0002025750A006261636B6C69676874206906
:100500006E6372656173653A2025750A000A0025DD
:1005100030325820006B6579626F6172645F72657A
:10052000706F72743A20000A0025303258006B65F3
:1005300079626F6172645F7365745F6C65643A20A1
:10054000003F00433E20004C25640A0074696D653D
:10055000725F72656164333228293A202530346C29
:10056000580A006B6579626F6172645F69646C65DB
:100570003A2025580A006B6579626F6172645F707A
:10058000726F746F636F6C3A2025580A00686F733E
:10059000745F6B6579626F6172645F6C6564732808
:1005A000293A2025580A000A092D205374617475D0
:1005B00073202D0A004743433A20352E342E302035
:1005C0004156522D4C4942433A20322E302E302093
:1005D0004156525F415243483A20617672350A00D3
:1005E0004F5054494F4E533A204C554641204558A0
:1005F0005452414B455920434F4E534F4C45204395
:100600004F4D4D414E4420343039360A0042554951
:100610004C443A2022303064363264222028323072
:100620003A31363A3030204A756C2032342032303C
:100630003230290A005649443A2030783133333772
:10064000284D61706C6520436F6D707574696E67BD
:1006500029205049443A20307836303137284A4EE4
:10066000414F204B6579626F617264292056455273
:100670003A203078303030310A000A092D20566592
:100680007273696F6E202D0A000A092D20436F6E68
:10069000736F6C65202D0A4553432F713A097175AC
:1006A00069740A000A092D204D61676963202D0ACB
:1006B000443A094465627567204D657373616765E7
:1006C00020546F67676C650A583A094D6174726906
:1006D00078204465627567204D6F646520546F67AC
:1006E000676C65202D2053686F77206B6579707279
:1006F000657373657320696E206D6174726978200B
:10070000677269640A4B3A094B6579626F6172647A
:1007100020446562756720546F67676C65202D20E3
:1007200053686F77206B657970726573732072659B
:10073000706F72740A4D3A094465627567204D6F97
:1007400075736520546F67676C650A563A0956657C
:100750007273696F6E0A533A095374617475730A40
:10076000433A09416374697661746520436F6E731F
:100770006F6C65204D6F64650A46312D4631303A05
:100780000953776974636820746F204C61796572CE
:1007900020302D392028463130203D204C30290A88
:1007A000302D393A0953776974636820746F204C8F
:1007B0006179657220302D390A47524156453A0910
:1007C00053776974636820746F204C617965722077
:1007D000302028616C7465726E617465290A423A32
:1007E000094A756D7020746F20426F6F746C6F6171
:1007F0006465720A4553433A094A756D7020746FF7
:1008000020426F6F746C6F616465722028616C7434
:1008100065726E617465290A453A095072696E7491
:1008200020454550524F4D2053657474696E67736F
:100830000A4253504143453A09436C656172204571
:100840004550524F4D0A000A002575002E6C657602
:10085000656C3A20000A002575002E656E61626C99
:10086000653A20000A0025303258006261636B6CE3
:10087000696768745F636F6E6669672E7261773A45
:1008800020000A002575002E6E6B726F3A20000A58
:10089000002575002E737761705F6261636B736C06
:1008A0006173685F6261636B73706163653A2000B6
:1008B0000A002575002E737761705F677261766537
:1008C0005F6573633A20000A002575002E6E6F5F26
:1008D0006775693A20000A002575002E73776170EC
:1008E0005F72616C745F726775693A20000A002557
:1008F00075002E737761705F6C616C745F6C6775E7
:10090000693A20000A002575002E737761705F72C6
:1009100063746C5F726775693A20000A0025750080
:100920002E737761705F6C63746C5F6C6775693A86
:1009300020000A002575002E636170736C6F636B75
:100940005F746F5F636F6E74726F6C3A20000A00A1
:100950002575002E737761705F636F6E74726F6CB4
:100960005F636170736C6F636B3A20000A0025301F
:100970003258006B65796D61705F636F6E66696791
:100980002E7261773A20000A002575002E6D6F7572
:1009900073653A20000A002575002E6B6579626F39
:1009A0006172643A20000A002575002E6D61747230
:1009B00069783A20000A002575002E656E61626C28
:1009C000653A20000A002530325800646562756778
:1009D0005F636F6E6669672E7261773A20000A0066
:1009E00025750064656661756C745F6C617965720C
:1009F0003A20003F000A6D6F7573653A206F666696
:100A00000A000A6D6F7573653A206F6E0A000A6BF3
:100A10006579626F6172643A206F66660A000A6BDC
:100A20006579626F6172643A206F6E0A000A6D61C7
:100A3000747269783A206F66660A000A6D61747292
:100A400069783A206F6E0A000A64656275673A2019
:100A50006F66660A000A64656275673A206F6E0AFF
:100A6000000A0A4A756D70696E6720746F20626FA4
:100A70006F746C6F616465722E2E2E2000433E20D1
:100A800000436C656172696E6720454550524F4D59
:100A90000A006565636F6E6669673A0A005B735D9D
:100AA000004B6579626F6172642073746172742E99
:100AB0000A005B575D005B535D005B525D005B4469
:100AC0005D005B435D000403300000001C034A002E
:100AD0004E0041004F0020004B006500790062008D
:100AE0006F00610072006400000020034D0061008F
:100AF00070006C006500200043006F006D00700006
:100B00007500740069006E006700000004030904AA
:100B100009025B00030100A0FA09040000010301BF
:100B2000010009211101000122400007058103088D
:100B3000000A09040100010300000009211101005D
:100B4000012232000705820320000A090402000284
:100B50000300000009211101000122220007058382
:100B6000032000010705030320000112011001000A
:100B7000000008371317600100010203010631FF6E
:100B80000974A1010975150026FF009520750881DB
:100B9000020976150026FF00952075089102C00510
:100BA000010980A101850319012AB700150126B7A3
:100BB00000950175108100C0050C0901A101850493
:100BC00019012AA002150126A002950175108100C5
:100BD000C005010906A101050719E029E71500254F
:100BE00001950875018102950175088101050719B4
:100BF0000029FF150026FF009506750881000508ED
:100C00001901290595057501910295017503910159
:100C1000C00011241FBECFEFDAE0DEBFCDBF04B6A7
:100C200003FE27C08091590290915A02A0915B0265
:100C3000B0915C028730904BA740B04BD1F410923A
:100C4000590210925A0210925B0210925C0214BE7A
:100C500084B7877F84BF0FB6F894A8958091600011
:100C6000886180936000109260000FBEE0E0F8E3BE
:100C7000099511E0A0E0B1E0ECE4F2E502C00590D6
:100C80000D92A039B107D9F722E0A0E9B1E001C087
:100C90001D92A935B207E1F70E9405230C9424297F
:100CA0000C940000FF93EF93E0919001F09191017B
:100CB000309709F00995EF91FF910895FC01859116
:100CC000803011F0EFDFFBCF0895FF27E0E230E244
:100CD00047FF0CC0419597FF09C0EDE26095709504
:100CE00080959095611D711D811D911D27FF02C08A
:100CF000219530E350E2AA27660F771F881F991FBE
:100D0000AA1FA41710F0A41B63955A95A9F7AA303F
:100D100008F0A95FA05DAF93F3956115710581059A
:100D2000910541F7ED3211F4EF93F395F21718F4B2
:100D30003F93F395FBCF8F91B5DFFA95E1F70895D7
:100D4000E991F9918591803021F0853219F0AADF7F
:100D5000F9CF089520E0E89455915532C1F350330E
:100D600011F4689455915A3348F4505390F3220F7C
:100D7000022E220F220F200D250FF4CF0EF4219505
:100D800089919991533619F3533729F1533559F114
:100D9000BC0188279927E8945C3621F489919991C0
:100DA00068945591543639F446EF7EF077FF0DC0C4
:100DB0008FEF9FEF0AC055374AE039F0583540E1D0
:100DC00021F0523642E009F00895FF93EF937DDF62
:100DD000EF91FF91B7CFFF93EF93FC0181918030AA
:100DE000B9F360DFFBCFFF93EF9368DFF1CFDF93C1
:100DF000CF93CDB7DEB72596A3DFCF91DF910895CE
:100E000081E0089581E008950C94020708950C9400
:100E100006071F93CF93DF9300D000D01F92CDB76A
:100E2000DEB749835A836B833091AA0189819A8105
:100E3000311114C0662359F0222349F00E945A1A36
:100E4000182F682F89819A810E94031A03C00E947B
:100E50002E1A182F69817A81812F04C00E945A1A94
:100E600069817A810F900F900F900F900F90DF9112
:100E7000CF911F910C94DF07FC01262F40815181F7
:100E80006281738184810C940907CF93DF93EC0115
:100E900060E00E943C07BE01DF91CF910C940707F0
:100EA0000E94B61B811102C00E945F1C0E949E0D11
:100EB0000C943E0A0C943A0A08950C945C0781E065
:100EC00008950C945F07CF93C82F0E945D078C2F65
:100ED0000E946107CF91089508950E940F150E9406
:100EE0006C072FEF84E39CE0215080409040E1F7B5
:100EF00000C000000C948F1D0F931F93CF93DF93BE
:100F0000EC0161E00E943C078C01BE010E940407D5
:100F1000882309F449C0BE01C8010E94A00C88239F
:100F200009F442C0BE01C8010E94220E8823E1F1EB
:100F3000BE01C8010E94630E8823B1F1BE01C80141
:100F40000E948E0F882381F18A81882331F101303C
:100F50008CE5180751F00E3D8CE51807D9F0011506
:100F60001C45D9F40E946D071FC080912002C82F34
:100F7000C095C170C0FB80F980932002CC2329F07A
:100F800086E594E00E945E060FC084E494E00E942F
:100F90005E060BC00E945F1C07C0CE01DF91CF919F
:100FA0001F910F910C940007C0E08C2FDF91CF911F
:100FB0001F910F91089580E090E0089508952CE32B
:100FC000829FC0011124FC012CE0729FE00DF11DF5
:100FD0001124E60FF11DEE0FFF1FE450FF4F859126
:100FE00094910895880F991FFC01E959FB4F859151
:100FF00094910895CF93DF930E94DF070E940C091C
:10100000EC018115904508F043C0C11580E4D80774
:1010100008F0CBC0C03ED10528F5C03CD10508F092
:10102000B3C0C83AD10578F4C53AD10508F0A4C0D8
:10103000C130D10509F4ECC008F4E8C0C430D105D2
:1010400008F0E6C0E3C0CF3BD10508F0DFC0C85AC6
:10105000D0E0CC0FDD1FC35FDE4F0990D881C02DDB
:10106000D464D6C0C11590E2D90750F4C11521E06F
:10107000D20708F0CDC0C83ED10508F4C9C0C6C02B
:10108000C11580E3D80708F086C0CE019F707FC0ED
:10109000C11595E5D90708F043C0C11524E5D2076D
:1010A00008F09AC0C11582E5D80708F5C11591E589
:1010B000D90708F07DC0CE0174E0969587957A95A2
:1010C000E1F783709C2F937021E030E002C0220F83
:1010D000331F9A95E2F73C68382BCF70C695C695BA
:1010E00080E2C89FE0011124C22BD32B91C09E0146
:1010F000237033278C2F86958695C115D34508F02C
:101100005CC0C1E0D0E002C0CC0FDD1F2A95E2F741
:1011100020E2829FC0011124C82BD92BDC6878C043
:10112000C11529E5D207A0F4C11588E5D80708F054
:1011300058C0C11596E5D90708F068C08C2F0E94E9
:10114000A0098F71C82FD0E0DC2FCC27D06260C0FF
:10115000C1152AE5D20708F449C0CE019056811581
:10116000904208F053C08D2F8F710E94A009DD2797
:10117000D0628F71D82B4CC0C55AD0E0C55CDE4F11
:10118000C881D0E0D06444C0CE01805C91090E9447
:10119000F207EC013DC0CE019927D3FF03C0EC015B
:1011A000D86C36C0EC01D06C33C0DF70D06A30C070
:1011B000DC2FCC27C16FD06A2BC0C1E0D0E002C0C9
:1011C000CC0FDD1F2A95E2F720E2829FC001112497
:1011D000C82BD92BDA681CC0DC2FCC27C46FD06A8F
:1011E00017C0DC2FCC27C06FD06A12C08C2F8F7035
:1011F0000E94A00994E0D695C7959A95E1F7CF7023
:10120000D0E0DC2FCC27D069C82B02C0C0E0D0E0F2
:10121000CE01DF91CF9108958238910569F1B0F444
:101220008133910509F46DC048F48932910509F4C0
:1012300063C08A32910509F469C008958533910528
:1012400009F455C089339105B9F00895833E91059D
:1012500069F138F4803E9105B1F0823E910509F1C3
:101260000895863E9105A9F1873E9105B9F1843E26
:10127000910509F064C023C020914A0220FD4FC0AF
:1012800021FD4DC0089580914A0280FD44C08091A7
:101290004B0280FF44C080914A0284FD42C083EE2D
:1012A0004DC080914A0282FF38C0F5CF80914A023A
:1012B00082FD33C080914B0280FD31C0ECCF809124
:1012C0004B0281FF32C080914A0284FD2AC087EE22
:1012D00035C080914A0283FF26C0F5CF80914A0233
:1012E00083FD21C080914B0281FD1FC0ECCF809116
:1012F0004A0285FD1CC01DC080914A0285FD19C0AF
:1013000016C080914A0286FD16C017C080914A021D
:1013100086FD13C010C089E311C082EE0FC080EEBD
:101320000DC080E00BC086EE09C084EE07C089E2E4
:1013300005C085E303C08AE201C081E390E008951F
:1013400090914A0292FF0DC0282F2871283019F47D
:10135000877F846006C0282F2471243011F48B7F8E
:10136000886093FF0DC0282F2871283119F4877EDB
:10137000846106C0282F2471243111F48B7E88618A
:1013800020914B0220FF0DC0382F3871383019F4EE
:10139000877F816006C0382F3171313011F48E7F24
:1013A000886021FF0DC0282F2871283119F4877E0D
:1013B000816106C0282F2171213111F48E7E886150
:1013C00094FD877E0895E82FF0E0EE0FFF1FE55CA7
:1013D000FD4F808191810895CF92DF92EF92FF922D
:1013E0000F931F93CF93DF9387E794E00E945E06ED
:1013F0008BE3E82E82E0F82EC0E0D0E092E7C92E21
:1014000094E0D92E09E614E0DF93CF93DF92CF92D8
:101410000E94F7068FE694E00E945E06F701819134
:1014200091917F010E94A31B9F938F931F930F9312
:101430000E94F70687E694E00E945E0621968DB72B
:101440009EB708960FB6F8949EBF0FBE8DBFC530ED
:10145000D105D1F6DF91CF911F910F91FF90EF90C1
:10146000DF90CF90089580EA8A95F1F70895089566
:101470000C94370A0C94380A0C94370A0C943C0AE2
:10148000CF93DF93AAE4B1E04FE451E061E070E074
:101490008D91E82FE295EF70F0E021A18F70EB01C4
:1014A00002C0CC0FDD1F8A95E2F7CE019C2F9095EC
:1014B000922391A392A1892B82A34A175B0741F73C
:1014C000AEE3B1E04AE451E061E070E08D91E82FD5
:1014D000E295EF70F0E021A18F70EB0102C0CC0F1C
:1014E000DD1F8A95E2F7CE019C2F9095922391A360
:1014F00092A1892B82A34A175B0741F7E1E3F2E04F
:10150000ABE3B2E08BE392E0119211921D921D9237
:101510008E179F07C9F785E00E941F0BDF91CF91BF
:101520000C9450076F927F928F929F92AF92BF92CE
:10153000CF92DF92EF92FF920F931F93CF93DF939F
:101540008AE4C82E81E0D82E01E312E09BE3A92EA5
:1015500092E0B92E712C88248394912CF60181910C
:101560006F01C82FC295CF70D0E099A18F70740120
:1015700001C0EE0C8A95EAF7892F8E2989A38AA1EA
:101580006E2C609486218AA30E94330AEEE3F1E078
:1015900040E050E020E030E06191A62FA295AF70CE
:1015A000B0E090968C9190E06F7002C09595879511
:1015B0006A95E2F780FD08C0C401042E02C0880FBE
:1015C000991F0A94E2F702C080E090E0282B392BA3
:1015D0004F5F5F4F4C305105F9F689A1682269A22F
:1015E0008AA1E82AEAA2F8018081918128173907A7
:1015F00021F03183208381E001C080E0782A0E5FF2
:101600001F4FA016B10609F0A9CF272D45E06BE3C7
:1016100072E081E392E00E94200B0E945A07872D1E
:10162000DF91CF911F910F91FF90EF90DF90CF90BE
:10163000BF90AF909F908F907F906F900895089586
:10164000FF920F931F93CF93DF93F82E092F162F3E
:10165000D72FC42F222349F081E0809394010E9468
:10166000421D90939301809392018091940188236D
:10167000D9F080919201909193010E945A1D069792
:1016800098F0EF2DF02FA12FBD2F80E090E04C2F90
:1016900050E08417950734F4219131912D933D93B7
:1016A0000196F7CF10929401DF91CF911F910F9186
:1016B000FF9008950E94B61B811102C00E945F1C1A
:1016C0000E94E71B80934502282F26952695269594
:1016D00030E02430310524F0877088618093450222
:1016E0008091450280FF04C086958695869501C04D
:1016F00080E00C94260D20914502822F86958695D8
:101700008695482F50E04330510554F48F5F982F51
:10171000990F990F990F822F8770892B809345021B
:10172000809145028160809345020E94EB1B80916D
:10173000200280FF11C0809145028695869586958E
:101740001F928F9385EF94E09F938F930E94F706EB
:101750000F900F900F900F9080914502869586957F
:1017600086950C94260D80914502982F9695969516
:101770009695A1F0915E990F990F990F8770892B1B
:1017800080934502887F91E009F490E080914502C2
:1017900090FB80F9809345020E94EB1B8091200210
:1017A00080FF11C0809145028695869586951F928F
:1017B0008F938DED94E09F938F930E94F7060F9087
:1017C0000F900F900F908091450286958695869593
:1017D0000C94260D8091450280FD1FC0816080938E
:1017E0004502813019F489E08093450280914502D9
:1017F0000E94EB1B8091200280FF08C085EB94E0E3
:101800009F938F930E94F7060F900F90809145024F
:101810008695869586950C94260D089580914502AF
:1018200080FF14C08E7F809345020E94EB1B809145
:10183000200280FF08C082EA94E09F938F930E9469
:10184000F7060F900F9080E00C94260D0895CF932B
:10185000C0914502C1708091200280FF0CC01F9290
:10186000CF9387EC94E09F938F930E94F7060F909D
:101870000F900F900F90CC2319F0CF910C940E0C79
:10188000CF910C94EA0B90914502892F869586950D
:1018900086958F5F8F719770843038F4880F880F2A
:1018A000880F892B8093450202C090934502809156
:1018B0004502887F91E009F490E08091450290FB19
:1018C00080F9809345020E94EB1B8091200280FFEB
:1018D00011C0809145028695869586951F928F93BB
:1018E0008EE894E09F938F930E94F7060F900F90DD
:1018F0000F900F90809145028695869586950C9461
:10190000260D843008F083E0909145029770282FCF
:10191000220F220F220F922B90934502987F21E0F5
:1019200009F420E09091450220FB90F99093450244
:101930000C94260D0E94810C809145020C94EB1BA7
:101940009C01FB018281882349F12D3BFCE53F0787
:10195000C9F040F42B3BECE53E0769F02C3B3C45DD
:1019600061F008952F3B9CE5390791F070F0203C21
:101970003C4589F0089583E001C080E00E949A0C04
:1019800080E008950E94B30BFBCF0E947B0BF8CF41
:101990000E94270CF5CF0E94430CF2CF81E00895FE
:1019A000509A58980895589A0895589808951F92F3
:1019B0000F920FB60F9211242F933F934F935F9383
:1019C0006F937F938F939F93AF93BF93EF93FF9307
:1019D0000E94D50CFF91EF91BF91AF919F918F9194
:1019E0007F916F915F914F913F912F910F900FBE1B
:1019F0000F901F9018951F920F920FB60F921124FF
:101A00002F933F934F935F936F937F938F939F9306
:101A1000AF93BF93EF93FF938091880090918900DB
:101A20008130914010F00E94D30CFF91EF91BF9153
:101A3000AF919F918F917F916F915F914F913F9166
:101A40002F910F900FBE0F901F901895CF92DF929D
:101A5000EF92FF92CF93C82F8430A8F4811114C065
:101A60008091880090918900892B51F080916F00BE
:101A70008D7F80936F0080916F008E7F80936F00C9
:101A80000E94D50C11C0C3E080918800909189001C
:101A9000892B51F480916F00826080936F00809158
:101AA0006F00816080936F002C2F30E0AFEFBFEFAD
:101AB0000E94C82823E030E040E050E00E94A028C7
:101AC000C9012C3764E1360728F469E070E00E9410
:101AD0008C2829C0DA01C9018A50974DAF4FBF4FFA
:101AE0006627782F892F9A2F25EF38E241E050E0C2
:101AF0000E94A02869017A01CA01B9010E947028D8
:101B00009B01AC01C701B6010E947028BB27A92F19
:101B1000982F872F009721E0A207B10511F0BC0193
:101B200002C06FEF7FEF7093890060938800CF91C0
:101B3000FF90EF90DF90CF90089508950E94D00C11
:101B400082E08093800089E1809381008FEF9FEF96
:101B500090938700809386000C945A0B0F931F93E9
:101B6000CF93DF93C62FD42F122FFC0182818823BD
:101B7000C9F0609397010E94421D90939601809353
:101B8000950180E28C0F883008F057C0C77081E063
:101B900001C0880FCA95EAF7DF91CF911F910F918D
:101BA0000C948E1280919701681330C0809195013A
:101BB000909196010E945A1D883C910538F500E2EB
:101BC0000D0FCD17B9F080E28C0F883040F4C7704C
:101BD00081E001C0880FCA95EAF70E94951208308B
:101BE00028F581E09D2F977001C0880F9A95EAF73C
:101BF0000E948E12812F0E947B120830F0F4D77061
:101C000081E001C0880FDA95EAF70AC080E28C0F04
:101C1000883098F4C77081E001C0880FCA95EAF750
:101C2000DF91CF911F910F910C949512812FDF912D
:101C3000CF911F910F910C947B12DF91CF911F9147
:101C40000F9108959C01CB01233F4CE53407F9F037
:101C500078F4283DFCE53F07B9F0293D4CE5340711
:101C600011F1273D3C4531F526E241EE61EE1EC003
:101C7000253FFCE53F0799F070F0263F3C45D1F445
:101C800027E245EE66EE12C027E245EE0EC026E2E0
:101C900041EE60EE0BC027E245EE64EE07C026E29F
:101CA00041EE62EE03C028E241E065EE0E94AE0D17
:101CB00080E00895FC018281882319F01092970139
:101CC000089581E00895CF93DF93EC01FB018281B9
:101CD000882309F41FC1C230FCE5DF0708F41BC1EB
:101CE000C6319CE5D90738F09E012A5F3C45293072
:101CF000310508F010C10E94C91B90934B028093DC
:101D00004A02C031ECE5DE0709F4C3C008F041C067
:101D1000C8308CE5D80709F49AC0F0F4C430ECE57B
:101D2000DE0709F487C068F4C2308CE5D80709F4EF
:101D300077C0C330DC4509F0E3C080914A0282607D
:101D400076C0C630ECE5DE0709F46EC008F07BC053
:101D500080914A0288606BC0CC308CE5D80709F4CA
:101D600085C068F4CA30ECE5DE0709F474C008F0F9
:101D700079C00E940F1580914A02806858C0CE3009
:101D80008CE5D80709F476C008F07FC080914A023C
:101D90008BC0CB3FECE5DE0709F44FC018F5C3312B
:101DA0008CE5D80709F47DC078F4C131ECE5DE0795
:101DB00009F473C0C231DC4509F0A2C00E940F15BE
:101DC00080914A028F7733C0C5318CE5D80709F47A
:101DD00072C008F486C0CA3FDC4509F091C080910A
:101DE0004B023EC0CF3FFCE5DF0709F45FC058F46B
:101DF000CD3F9CE5D90709F444C008F43FC0809169
:101E00004B0282602DC0C130FDE5DF0709F475C0CB
:101E100008F45DC0C230DD4509F072C080E06EC0DC
:101E200080914A02816003C080914A028061809360
:101E30004A0266C080914A0211C080914B028260C2
:101E400080934B025DC080914A028062F0CF809106
:101E50004A028064ECCF80914A0288608460E7CFB8
:101E60008160EECF80914A028E7FE1CF80914A025D
:101E70008D7FDDCF80914A02877FD9CF80914B0241
:101E800018C080914B028D7FDBCF80914A028F7EFC
:101E9000CECF80914A028F7DCACF80914A028F7B3C
:101EA000C6CF80914A02877F8B7FC1CF80914B0242
:101EB0008D7F8E7FC5CF80914A0282FB222720F939
:101EC00091E0922790FB82F990FB83F9B0CF80914B
:101ED0004B02982F909591708E7F892B90FB81F902
:101EE000AFCF0E940F1580914A0287FB222720F96D
:101EF00091E0922790FB87F99ACF81E00E94611CC4
:101F000080914A0290914B020E94DA1B0E940F15A9
:101F100080E001C081E0DF91CF910895CF93DF93FE
:101F200086319C4541F5EB010E94DB1A982F8A818E
:101F30002091000130910101882379F09A7A81E0A3
:101F400009F480E080939801911102C069E201C018
:101F500065E3C9010E94A81C0AC080919801811103
:101F600002C069E201C065E3C9010E94AA1C0E9487
:101F7000291B80E001C081E0DF91CF91089590930B
:101F80009E0180939D010895E0919D01F0919E0135
:101F9000309721F00190F081E02D099480E00895C0
:101FA000EF92FF920F931F93CF93DF93E0919D01E8
:101FB000F0919E013097B1F18C010280F381E02D08
:101FC00009958091200282FF2DC080FF04C085E129
:101FD00095E00E945E06E80118E08FE0E82E85E0BB
:101FE000F82E8091200280FF0BC088811F928F9372
:101FF000FF92EF920E94F7060F900F900F900F90B4
:10200000115021961111EDCF8091200280FF0AC05E
:102010008DE095E0DF91CF911F910F91FF90EF90B0
:102020000C945E06DF91CF911F910F91FF90EF907E
:10203000089520919B0130919C012817390771F078
:1020400090939C0180939B01E0919D01F0919E01F2
:10205000309721F00680F781E02D099408952091B2
:10206000990130919A012817390771F090939A01DC
:1020700080939901E0919D01F0919E01309721F0AC
:102080000084F185E02D0994089585B7806885BFA7
:1020900085B7806885BF089508950C944C100C9402
:1020A0004D100C944C100C944C100E9445100E9442
:1020B00051100C944F1081E008950C945B100E9415
:1020C000391D0E94400A0E94B31D0E945A0B0C94B5
:1020D0005310CF93C82F8091200282FF1EC080FF33
:1020E00004C08EE295E00E945E068091200280FF8F
:1020F0000CC01F92CF9389E295E09F938F930E942B
:10210000F7060F900F900F900F908091200280FFA4
:1021100004C087E295E00E945E068C2FCF910C945C
:1021200063077F928F929F92AF92BF92CF92DF927E
:10213000EF92FF920F931F93CF93DF93CDB7DEB74C
:102140002A970FB6F894DEBF0FBECDBF0E94920A49
:102150000E945D10811111C08FEF89838A831B82D9
:102160000E94421D8160782F9D838C8349815A8112
:102170006B818D810E9441114FC040EAA42E41E045
:10218000B42E00E010E0702E802F0E94E3096C0155
:10219000F501819091905F01882699268114910420
:1021A00031F40F5F1F4F0530110569F7D5CF8091CE
:1021B000200281FD0E94EC0980E0EE24E394F12CE2
:1021C00094012E213F21232B09F18E837F82CE2083
:1021D000DF2081E0CD2809F480E088870E94421D3D
:1021E0008160782F9A8789874E815F8168858A858B
:1021F0000E944111000F111FF801E056FE4F80812F
:102200009181E826F926F182E08206C08F5FEE0C0C
:10221000FF1C8C30A9F6C5CF0E949D0D0E94C40FF3
:1022200090919F018917C9F00E94C40F80939F016C
:102230002A960FB6F894DEBF0FBECDBFDF91CF91C7
:102240001F910F91FF90EF90DF90CF90BF90AF90D4
:102250009F908F907F900C9469102A960FB6F894F7
:10226000DEBF0FBECDBFDF91CF911F910F91FF90C9
:10227000EF90DF90CF90BF90AF909F908F907F9026
:102280000895CF93DF93CDB7DEB72B970FB6F894B1
:10229000DEBF0FBECDBF4F83588769877A878B8794
:1022A000DE01119686E0FD0111928A95E9F785E03D
:1022B000FE01379601900D928A95E1F749815A8186
:1022C0006B817C818D819E810E94C8172B960FB6F1
:1022D000F894DEBF0FBECDBFDF91CF910895FC0112
:1022E000808191810E949C1A0895CF93882309F4DC
:1022F000A1C0C82F8238C1F40E94C40F81FD9AC0CA
:1023000069E380910001909101010E94A81C0E9444
:10231000291B2FEF81EE94E0215080409040E1F79F
:1023200000C0000069E319C0833801F50E94C40FA2
:1023300080FD80C063E580910001909101010E94C1
:10234000A81C0E94291B2FEF81EE94E021508040B1
:102350009040E1F700C0000063E58091000190919A
:1023600001010E94AA1CCF910C94291B8438C1F44E
:102370000E94C40F82FD5EC067E4809100019091CD
:1023800001010E94A81C0E94291B2FEF81EE94E0FE
:10239000215080409040E1F700C0000067E4DDCFAD
:1023A0008CEF8C0F813AF8F48C2F0E94A5208111BC
:1023B00041C06C2F80910001909101010E94721C1C
:1023C000882349F06C2F80910001909101010E94B7
:1023D000AA1C0E94291B6C2F809100019091010181
:1023E0000E94A81CC0CF80E28C0F883048F4C770D0
:1023F00081E001C0880FCA95EAF70E94DE1AB3CFC8
:10240000EBE5EC0FE33040F4F0E0E358FE4F808161
:1024100090E0CF910C941910C85AC73158F4EC2FA2
:10242000F0E0EE0FFF1FE15BFE4F80819181CF91C5
:102430000C942F10CF910895882309F45BC0682F66
:10244000823879F40E94C40F81FF54C069E38091FF
:102450000001909101010E94A81C0E94291B69E3C0
:1024600010C08338B1F40E94C40F80FF43C063E5FD
:1024700080910001909101010E94A81C0E94291BDB
:1024800063E580910001909101010E94AA1C0C94C7
:10249000291B843879F40E94C40F82FF2BC067E4A3
:1024A00080910001909101010E94A81C0E94291BAB
:1024B00067E4E7CF8CEF860F813A18F380E2860F4E
:1024C000883048F4677081E001C0880F6A95EAF7A8
:1024D0000E94E41ADCCF8BE5860F833020F480E085
:1024E00090E00C941910685A673120F480E090E075
:1024F0000C942F100895CF93C82F0E947511C933E3
:1025000049F42FEF87EE93E0215080409040E1F7AF
:1025100000C000008C2FCF910C941C12882321F056
:102520000E94DE1A0C94291B0895882321F00E9432
:10253000E41A0C94291B0895CF92DF92EF92FF9238
:102540000F931F93CF93DF937C01062FC72FFC01BE
:10255000158112951F70D281D1110E94FB1A0E9421
:10256000D41A882399F0DD2389F08C2F807F803462
:1025700021F080E2800F883048F082E00E94731BD7
:102580000E94D41A91E0D82ED92601C0D12CCC2E8D
:10259000C2948FE0C8228C2D90E0FC01EA5AFF4FD4
:1025A0000C94C2288C2F807FCF70882311F0C295A5
:1025B000C07FDD2399F0CC2309F482C180E2800F33
:1025C000883010F0011104C08C2F0E94DE1A03C065
:1025D0008C2F0E94EE1A0E94291B72C1802F0E942C
:1025E0001C12CC2309F491C180E2800F883010F0D6
:1025F000011104C08C2F0E94E41A03C08C2F0E948A
:10260000F41A0E94291B81C18C2F807FCF708032E9
:1026100011F0C295C07F002319F00130C9F022C02B
:10262000DD2371F0112341F0113031F40E940E1BB3
:102630008C2B0E94161B69C10E940E1B8C2B1DC087
:10264000112319F0113009F460C10E941F1B25C02D
:10265000DD2321F0163008F058C10EC0153008F007
:1026600054C11BC0DD2361F0112331F0F7018581D6
:1026700080FF26C18F7085838C2F0E948E1245C1EA
:10268000112359F0093309F02CC1FFEF27EE83E045
:10269000F15020408040E1F722C18C2F0E9495121A
:1026A00034C18C2F86958695837019F0813061F046
:1026B0002CC1DD2321F0802F9C2F937002C080E07D
:1026C00090E00E94191029C1DD2321F0802F9C2F5A
:1026D000937002C080E090E00E942F101EC18C2FEA
:1026E000837009F045C0D11114C1402F4295469521
:1026F0004770440F440F602F6F70862F90E0A0E06A
:10270000B0E0042E04C0880F991FAA1FBB1F0A94B3
:10271000D2F704FF10C00FE010E020E030E004C06A
:10272000000F111F221F331F4A95D2F700951095F5
:102730002095309503C000E010E09801C695C6953D
:10274000C370BC01CD01602B712B822B932BC23047
:1027500049F058F4C13019F00E941919DAC00E94EA
:102760000719D7C00E942B19D4C00E940519D1C0E7
:10277000DD2319F08C2F817001C08695882309F420
:10278000C8C0402F429546954770440F440F602FB4
:102790006F70862F90E0A0E0B0E0042E04C0880F98
:1027A000991FAA1FBB1F0A94D2F704FF10C00FE0A5
:1027B00010E020E030E004C0000F111F221F331F83
:1027C0004A95D2F7009510952095309503C000E00A
:1027D00010E09801C695C695C370BC01CD01602B71
:1027E000712B822B932BC23049F058F4C13019F071
:1027F0000E94DE198EC00E94CC198BC00E94F01975
:1028000088C00E943F1985C0CF70DD2339F08C2F1E
:102810000E946519802F0E948E127BC0802F0E941B
:1028200095128C2F0E94861974C0023F01F128F482
:10283000003F41F0013FA1F03FC0033FF9F0043FEA
:1028400039F13AC0DD2341F0153008F05EC08C2F1D
:102850008F710E94AB1959C0163008F056C0F7CFDF
:10286000DD2339F08C2F8F710E9465194EC0DD2356
:10287000C9F38C2F8F710E94861947C0DD2329F080
:102880008C2F8F710E94501940C00E944B193DC07F
:10289000DD2349F0CF718C2F0E94651963E08C2FE6
:1028A0000E945E1B32C081E00E94731B123068F1EF
:1028B00082E00E94731B29C0DD2331F0112391F2C5
:1028C000802F0E94751121C0112399F2093349F418
:1028D0009FEFE7EEF3E09150E040F040E1F700C0F9
:1028E0000000802F0E941C1210C04C2F4F70602FD0
:1028F000C7010E94DB070E9476180FC04C2F4F7053
:10290000602FC7010E94DE0708C088EF8C0D84305D
:1029100020F40E94C40F0E946307DD20C9F00E94CA
:10292000D01A80FD15C0F70112820E94CA1A0E94B7
:102930006519C7010E94C9140E94CA1ADF91CF917C
:102940001F910F91FF90EF90DF90CF900C9486191C
:10295000DF91CF911F910F91FF90EF90DF90CF907B
:1029600008950F931F93CF93DF93EC0168817981D2
:102970008A810E94A71A8C010E94021A0E94F318F1
:10298000B801CE010E949C12DF91CF911F910F914F
:102990000895CF93DF93EC01988189812B813C814D
:1029A000232B31F08F3F31F481E09F3F19F403C0B6
:1029B00081E001C080E080FD19C0CE010E947C074B
:1029C00081110CC00E94D41A882381F08A81882347
:1029D00069F082E0DF91CF910C94731BCE010E94CD
:1029E000B114CE01DF91CF910C944507DF91CF91C7
:1029F00008950E94FB1A0E940B1B0E94291B80E075
:102A000090E00E94191080E090E00C942F108091CB
:102A10000001909101010E94AC1C0C94F9140E94D9
:102A2000EB1A0C940715E92FE295EF704E2F50E04A
:102A3000FA013297EE30F105B0F4EA59FF4F0C94E9
:102A4000C228803F91F018F4883E68F40EC0843F9D
:102A500051F40BC0883E48F0813F29F406C093FB37
:102A6000882780F9089580E0089581E008950E9404
:102A70009C1A0E9413150895CF93DF9300D000D0C5
:102A80001F92CDB7DEB70F900F900F900F900F9061
:102A9000DF91CF910895CF93DF9300D000D000D085
:102AA000CDB7DEB726960FB6F894DEBF0FBECDBF0A
:102AB000DF91CF9108951F93CF93DF93C091AB0126
:102AC00016E08091AC01C81799F0D0E01C9FF0018E
:102AD0001D9FF00D1124E355FE4F4081518162810D
:102AE0007381848195810E944B152196C770E9CF2F
:102AF000DF91CF911F9108954091DD015091DE014A
:102B00006091DF017091E0018091E1019091E2011B
:102B10000C944B150F931F93CF93DF938091E20199
:102B200082958F7009F05DC08091DF01882309F4E0
:102B300058C08091AB011091AC016091DD017091A2
:102B4000DE01C091E001D091E10191E06F3F09F019
:102B500090E0292F06E0811709F443C0209721F067
:102B60007F3F21F030E003C031E001C0322F90E020
:102B700030FD34C0089FF001099FF00D1124DF01E2
:102B8000A355BE4F11963C911197371327C03C9126
:102B9000361324C012963C91129731111FC0139620
:102BA0004D915C9114974C1B5D0B483C5105B0F462
:102BB0008091E2018F7080618093E201EE54FE4FBC
:102BC00080818F70806180838DED91E00E94C914B7
:102BD000DF91CF911F910F910C945B150196877037
:102BE000BACFDF91CF911F910F9108959F92AF922D
:102BF000BF92CF92DF92EF92FF920F931F93CF93EA
:102C0000DF93CDB7DEB761970FB6F894DEBF0FBE86
:102C1000CDBF8C0185E0F801DE011D9601900D927B
:102C20008A95E1F7F80140815181E2809091DD01C0
:102C30006091DE012091E0013091E1012115310523
:102C400031F06F3F31F481E09F3F19F403C081E020
:102C500001C080E0F82FF1709F2E80FD46C1F80181
:102C6000A380B4808DEDC82E81E0D82EF090DF01D6
:102C7000F501E21BF30BFF2009F4DFC08091E201B4
:102C8000E83CF10508F09BC0282F207F09F052C0D6
:102C9000561313C0491311C0FE2CE1100EC08F70E3
:102CA00080618093E2010E947C15C6010E94C914D4
:102CB0008091E201F801858358C1AB2831F05F3F74
:102CC00031F481E04F3F19F403C081E001C080E09E
:102CD00080FD03C081E08E2502C080E090E0F82FE7
:102CE000F170FF2E80FF1CC08091AB012091AC01E0
:102CF00036E0821709F417C190E0389FF001399F40
:102D0000F00D1124E355FE4F6181561306C060811A
:102D1000461303C06281E61203C001968770E9CFB3
:102D2000FE2CEE2009F421C18091E20181608093A4
:102D3000E2015AC0561306C0491304C0E11002C094
:102D4000F8019FC04D875E878D859E850E9437154F
:102D5000882379F1EE2069F12091E201822F82959A
:102D60008F7090E0029774F08091DD019091DE0108
:102D700098878F831986BB86AA862C87CE010796F3
:102D80000E94C91486E0F801ADEDB1E001900D920A
:102D90008A95E1F70E948A150E947C150DC056178E
:102DA00029F14D875E878D859E850E94371581119B
:102DB0002CC0C8010E94C914FF24F394D6C0282F48
:102DC000207F69F77A2DB98AA88A6E2D89890E9499
:102DD0003C158DED91E00E94C91486E0F601119238
:102DE0008A95E9F70E947C15F12CBFC04913D9CF11
:102DF000E110D7CFF8018583C8010E94C91486E08D
:102E0000F60111928A95E9F7B0C0EE2091F2209177
:102E1000E201822F82958F7090E002970CF4B2CF7E
:102E20008091DD019091DE019A8389831B82BD82AE
:102E3000AC822E83CE010196A3CFE83CF10508F0C9
:102E400047C0FE2CEE2009F4B4CF561330C049130E
:102E50002EC02091E20120FD21C0822F82958F702B
:102E6000482F50E041155105C9F0F80125834F3036
:102E7000510541F08F5F982F9295907F822F8F7030
:102E8000892B8583C8010E94C91486E0F801ADED45
:102E9000B1E001900D928A95E1F742C086E0F80119
:102EA000ADEDB1E001900D928A95E1F75EC04D87DE
:102EB0005E878D859E850E943715811163CF809135
:102EC000E20181608093E201C8010E94C9144DC0F3
:102ED0007A2DB98AA88A6E2D89890E943C1586E0D0
:102EE000F60111928A95E9F71BC0EE2009F461CF33
:102EF0004D875E878D859E850E943715F82E882325
:102F000009F457CF86E0F801ADEDB1E001900D92E4
:102F10008A95E1F78DED91E00E946F110E948A156C
:102F20000E947C1522C04D875E878D859E850E94FC
:102F30009C1A292F22952F70223028F49F7039F087
:102F4000811105C00BC0243028F49F7049F4805EC5
:102F5000883020F0C8010E94C9149F2CF92C05C0AC
:102F6000F8019581907F99F7F9CF8F2D61960FB673
:102F7000F894DEBF0FBECDBFDF91CF911F910F91AF
:102F8000FF90EF90DF90CF90BF90AF909F9008950B
:102F90001F93CF93DF93CDB7DEB72C970FB6F8947E
:102FA000DEBF0FBECDBF4F83588769877A878B8777
:102FB0009C87CE0107960E94F6158823D1F09F8149
:102FC00088852A853B85232B31F08F3F31F481E0C2
:102FD0009F3F19F403C081E001C080E080FD47C03D
:102FE0004F81588569857A858B859C850E944B1514
:102FF0003EC086E0FE013796DE01119601900D92EB
:103000008A95E1F7FF81E8856A857B856115710501
:1030100031F0EF3F31F481E0FF3F19F403C081E06C
:1030200001C080E080FD23C02091AC0130E0C901E7
:103030000196877099274091AB0150E0841795075E
:10304000F1F1F983EA837D836C8396E0929FD0014E
:10305000939FB00D1124A355BE4FFE0131960190F0
:103060000D929A95E1F78093AC010E945B1516E0F2
:103070008091AB019091AC01891771F1189FC0014B
:10308000112483559E4F0E94F615882329F1E09163
:10309000AB011E9FF0011124E355FE4F4081518189
:1030A00062817381848195810E944B158091AB016F
:1030B00090E00196877099278093AB01D9CF0E9449
:1030C0000F151092AC011092AB01EDEDF1E086E02E
:1030D000DF011D928A95E9F72C960FB6F894DEBFB2
:1030E0000FBECDBFDF91CF911F910895EF92FF9258
:1030F0000F931F93CF93DF938C01892B09F46CC03E
:10310000F12CEE24E394E8012196F80184918437B0
:1031100040F4843008F051C0813081F0823019F1E0
:103120005BC0853709F444C0A8F19CE7980F90373D
:1031300008F052C08F770E941C1241C00E5F1F4FD3
:10314000FE01849190E2980F983050F48770FE2D24
:1031500001C0FF0F8A95EAF78F2F0E94FE1A14C054
:103160000E9475112DC00E5F1F4FFE01849190E2E9
:10317000980F983060F48770FE2D01C0FF0F8A957C
:10318000EAF78F2F0E94041B0E94291B19C00E947E
:103190001C1216C00E5F1F4FFE01C491CC2381F09C
:1031A0008FE99FE00197F1F700C00000C150F6CF12
:1031B0000E5F1F4FFE01F49003C00E9475118E0137
:1031C0008F2D882309F49FCFEFE9FFE03197F1F7C6
:1031D00000C000008150F5CFDF91CF911F910F917A
:1031E000FF90EF900895089508950C94F4180C94AE
:1031F000F5180E94F71860930F02709310028093E5
:103200001102909312020C94F9140C94F9180F9374
:103210001F9300910F021091100220911102309122
:103220001202602B712B822B932B1F910F910C9408
:10323000F9180F931F9300910F0210911002209123
:1032400011023091120260237123822393231F9174
:103250000F910C94F9180F931F9300910F02109186
:1032600010022091110230911202602771278227EB
:1032700093271F910F910C94F9180C94F4180E9445
:103280003D1960930B0270930C0280930D02909392
:103290000E020C94F91460E070E0CB010C943F191D
:1032A0000F931F9341E050E060E070E08A019B01C2
:1032B00004C0000F111F221F331F8A95D2F7C901C6
:1032C000B8011F910F910C943F190F931F9341E088
:1032D00050E060E070E004C0440F551F661F771F88
:1032E0008A95D2F780910B0290910C02A0910D0269
:1032F000B0910E028A019B01082B192B2A2B3B2B24
:10330000C901B8011F910F910C943F190F931F939E
:1033100041E050E060E070E004C0440F551F661FBC
:10332000771F8A95D2F7409550956095709580915A
:103330000B0290910C02A0910D02B0910E028A0135
:103340009B01082319232A233B23C901B8011F919C
:103350000F910C943F190F931F9341E050E060E0F0
:1033600070E004C0440F551F661F771F8A95D2F77F
:1033700080910B0290910C02A0910D02B0910E026F
:103380008A019B01082719272A273B27C901B80171
:103390001F910F910C943F190F931F9300910B02F3
:1033A00010910C0220910D0230910E02602B712BB6
:1033B000822B932B1F910F910C943F190F931F9306
:1033C00000910B0210910C0220910D0230910E021F
:1033D00060237123822393231F910F910C943F1933
:1033E0000F931F9300910B0210910C0220910D027C
:1033F00030910E0260277127822793271F910F912A
:103400000C943F1908952CE0929F800D1124E82F11
:10341000E695E695E695877051E001C0550F8A95CF
:10342000EAF785E0E89FF0011124ED51FE4F20E01E
:1034300030E070E04081CB01022E02C09695879566
:103440000A94E2F7817081958427852384278193EC
:103450002F5F3F4F2530310569F708952CE0929F8B
:10346000800D1124682F669566956695982F977044
:1034700085E0689FB001112440E050E080E0FB014E
:10348000E40FF51FED51FE4F208130E0092E02C000
:10349000369527950A94E2F721703327042E01C050
:1034A000220F0A94EAF7822B4F5F5F4F4530510598
:1034B00031F70895BF92CF92DF92EF92FF920F9370
:1034C0001F93CF93DF938C01C0900B02D0900C021E
:1034D000E0900D02F0900E0280910F029091100288
:1034E000A0911102B0911202C82AD92AEA2AFB2A15
:1034F000CFE1D0E0D701C6010C2E04C0B695A79548
:10350000979587950A94D2F780FD04C0219790F78C
:10351000B12C07C0BC2EB8018C2F0E94FA0701976E
:10352000A9F38B2DDF91CF911F910F91FF90EF9019
:10353000DF90CF90BF900895CF93DF93EC010E946E
:103540005A1ABE010E94FA07DF91CF9108951F9386
:10355000CF93DF93EB019091AA01992321F0CB0146
:103560000E949C1A13C0882349F0CB010E945A1A6A
:10357000182F682FCE010E94031A04C0CB010E94AD
:103580002E1A182FBE01812F0E94FA07DF91CF91CA
:103590001F910895809113028595859585950895CD
:1035A000809113028770089590911302977081E0C3
:1035B00009F480E0089580911F02089590911F0200
:1035C000892B80931F020895809590911F02892373
:1035D00080931F02089510921F02089590911E0279
:1035E000892B80931E020895809590911E02892355
:1035F00080931E02089510921E02089590911D025C
:10360000892B80931D020895809590911D02892336
:1036100080931D02089510921D0208958091140256
:10362000089508950C94111B0C94121B9091140290
:10363000981721F0809314020C94141B0895809124
:103640001402882329F01092140280E00C94141BB9
:103650000895E0910001F091010180911F028083A3
:10366000E0910001F0910101908180911E02892B6F
:103670008083E0910001F0910101908180911D0211
:10368000892B808380911402882381F0E0910001CE
:10369000F09101019081892B8083809100019091AC
:1036A00001010E94661C81110E941F1B8091000174
:1036B000909101010C94D00F0C94111B98E0899FFC
:1036C00090011124262B209313020E9465198091EA
:1036D00013028595859585950C945C1B10921302B9
:1036E00080E00C945C1B20911302809582238093D0
:1036F0001302982F977079F430E0482F082E000CB1
:10370000550B2417350739F08595859585950E94C9
:1037100086190C946E1B08959093910180939001EB
:1037200008958295982F937344E0949F90011124FB
:103730008C7C86958695282B822F8575880F2A7A12
:103740002695822B0895CF93DF93D92F0E94911B4A
:10375000C82F8D2F0E94911B2C2F30E0322F222753
:10376000A901482BCA01DF91CF91089580E090E034
:103770000E94EA2821E08C3E9E4F09F020E0822F33
:10378000089582E090E00C94E22883E090E00C94AD
:10379000E228CF9384E090E00E94E228C82F81E2E3
:1037A00090E00E94E2282C2F30E0A901582BCA019A
:1037B000CF910895CF93C92F682F84E090E00E94A5
:1037C000F0286C2F81E290E0CF910C94F02886E0F5
:1037D00090E00C94E228682F86E090E00C94F028AA
:1037E000AB01BC018FE090E00C940229AB01BC015D
:1037F00083E190E00C94022960E070E0CB010C942E
:10380000F61B60E070E0CB010E94F01B0C94FC1BE7
:103810006CEE7EEF80E090E00E940E2960E082E096
:1038200090E00E94F02860E083E090E00E94F028A1
:1038300010920F02109210021092110210921202B6
:1038400060E084E090E00E94F02860E081E290E097
:103850000E94F02860E085E090E00E94F02860E09F
:1038600086E090E00E94F0286FEF87E090E00E94F1
:10387000F02840E050E0BA0188E090E00E94022980
:1038800060E08DE090E00E94F02840E050E0BA0156
:1038900088E190E00E94022960E087E190E00E94C8
:1038A000F02840E050E0BA018CE190E00E9402294B
:1038B00060E080E290E00E94F0280C94011C0C94DF
:1038C000081C682F8EE090E00C94F028FC013296E2
:1038D00097E080E0915029F021912223D9F38F5F66
:1038E000F9CF0895662349F0FC013296089621919C
:1038F000621729F0E817F907D1F780E0089581E011
:1039000008959C01FC0132969FEF80E0419146179B
:1039100089F09F3F19F4411101C0982F8F5F8630C5
:10392000A9F79F3F39F0F901E90FF11D97FDFA95CD
:103930006283089508959C012A5F3F4FFC014281F4
:10394000461301C01282019682179307B9F70895B2
:103950000C94811C0C949B1C029626E0FC01119295
:103960002A95E9F7089508950C94B31C0C94B31CA0
:10397000CF930E94B61C0E94920A0E94B41CC0E021
:103980008C2F0E94E309892B29F4CF5FC530C1F742
:1039900080E001C081E0CF9108950C94B31C0C9499
:1039A000CD1C0E94CF1C80915002843061F1109296
:1039B000210220E488E190E00FB6F894A895809366
:1039C00060000FBE2093600080E00E94260D80E022
:1039D0000E9463070E94CF1C83B7817F846083BFEE
:1039E00083B7816083BF7894889583B78E7F83BFC8
:1039F0000FB6F894A895809160008861809360006C
:103A0000109260000FBE08950C94B31C0E940F1515
:103A10000E945A0B0E94C40F0E9463070C94041D5D
:103A20001F920F920FB60F9211248F939F93AF9313
:103A3000BF9380912102811113C080914602909121
:103A40004702A0914802B09149024196A11DB11DC3
:103A50008093460290934702A0934802B093490294
:103A6000BF91AF919F918F910F900FBE0F901F90BC
:103A7000189582E084BD93E095BD9AEF97BD809341
:103A80006E0008952FB7F8948091460290914702F6
:103A9000A0914802B09149022FBF08952FB7F89422
:103AA00060914602709147028091480290914902CC
:103AB0002FBF08959C014FB7F894809146029091D2
:103AC0004702A0914802B09149024FBF821B930B5D
:103AD000089578941F920F920FB60F9211248F932E
:103AE0009F93AF93BF938091460290914702A0911C
:103AF0004802B09149020196A11DB11D8093460272
:103B000090934702A0934802B0934902BF91AF91AE
:103B10009F918F910F900FBE0F901F90189581E08D
:103B20008093E00080E28093D8001092C9008FE17A
:103B30009EE40197F1F700C0000087E090EBDC0104
:103B40008093590290935A02A0935B02B0935C0257
:103B50009CE088E10FB6F894A895809360000FBEB2
:103B600090936000FFCF0E94B61B811102C00E949B
:103B70005F1C0E94C11B809320020E94C91B90936E
:103B80004B0280934A020E94C51B682F70E080E0C0
:103B900090E00C940519CF93C82F1F928F9387E460
:103BA00095E09F938F930E94F70681E090E0A0E05C
:103BB000B0E0BC01CD0104C0660F771F881F991FBC
:103BC000CA95D2F70E9405190F900F900F900F9091
:103BD000CF910C940F15CF93DF938B3109F426C24C
:103BE00008F0C7C18B3009F4EAC108F0A1C18630E2
:103BF00009F4E8C120F4853009F4F6C199C2873090
:103C000009F4F9C1883009F093C282E99AE00E9470
:103C10005E0683EE99E00E945E060E94C51B1F921D
:103C20008F9380EE99E09F938F930E94F7068EED1D
:103C300099E00E945E060E94C11BC82F8BEC99E0A0
:103C40000E945E061F92CF9386EC99E09F938F931C
:103C50000E94F70684EC99E00E945E068AEB99E0E8
:103C60000E945E068C2F81701F928F9387EB99E0E4
:103C70009F938F930E94F70685EB99E00E945E0662
:103C80008BEA99E00E945E06C1FB882780F91F92AB
:103C90008F9388EA99E09F938F930E94F70686EAB4
:103CA00099E00E945E068AE999E00E945E06C2FBE6
:103CB000882780F91F928F9387E999E09F938F93CC
:103CC0000E94F70685E999E00E945E068CE899E07B
:103CD0000E945E06C3FBCC27C0F91F92CF9389E8F0
:103CE00099E09F938F930E94F70687E899E00E94DE
:103CF0005E060E94C91BEC0183E799E00E945E0604
:103D0000DF93CF938EE699E09F938F930E94F706FF
:103D10008CE699E00E945E0683E599E00E945E06CB
:103D20008C2F81701F928F9380E599E09F938F93E2
:103D30000E94F7068DB79EB780960FB6F8949EBF87
:103D40000FBE8DBF8EE499E00E945E0687E399E086
:103D50000E945E06C1FB882780F91F928F9384E33F
:103D600099E09F938F930E94F70682E399E00E9467
:103D70005E0680E299E00E945E068D2F81701F92A0
:103D80008F938DE199E09F938F930E94F7068BE1CB
:103D900099E00E945E0689E099E00E945E06D69551
:103DA000D1701F92DF9386E099E09F938F930E94DA
:103DB000F70684E099E00E945E0682EF98E00E9498
:103DC0005E06C2FB882780F91F928F938FEE98E0E2
:103DD0009F938F930E94F7068DEE98E00E945E06F7
:103DE0008BED98E00E945E06C3FB882780F91F9246
:103DF0008F9388ED98E09F938F930E94F70686ED4E
:103E000098E00E945E068CEC98E00E945E06C4FB7F
:103E1000882780F91F928F9389EC98E09F938F9366
:103E20000E94F70687EC98E00E945E0685EB98E01A
:103E30000E945E06C5FB882780F91F928F9382EB54
:103E400098E09F938F930E94F70680EB98E00E9482
:103E50005E0684E998E00E945E06C6FB882780F92A
:103E60001F928F9381E998E09F938F930E94F706AA
:103E70008DB79EB780960FB6F8949EBF0FBE8DBFCC
:103E80008FE898E00E945E0687E898E00E945E0650
:103E9000C7FBCC27C0F91F92CF9384E898E09F938B
:103EA0008F930E94F70682E898E00E945E060E94C7
:103EB000E71BC82F8BE698E00E945E061F92CF9307
:103EC00086E698E09F938F930E94F70684E698E039
:103ED0000E945E068AE598E00E945E068C2F817043
:103EE0001F928F9387E598E09F938F930E94F70628
:103EF00085E598E00E945E068CE498E00E945E06EC
:103F0000C695C695C6951F92CF9389E498E09F9376
:103F10008F930E94F70687E498E00E945E068DB7B3
:103F20009EB740960FB6F8949EBF0FBE8DBF45C09A
:103F3000803109F4A5C020F48E3009F48BC0F8C09C
:103F4000863109F4B8C0893109F0F2C08AE796E0F9
:103F50000E945E0685E396E00E945E068DE096E094
:103F60000E945E0680EE95E00E945E0685EB95E07D
:103F700084C08A32E1F060F4873209F4D5C028F4B5
:103F80008E3108F4D5C08D51D0C0893269F1D0C0CE
:103F9000833448F48A3308F0C5C0853309F4C4C0BB
:103FA000883369F0C5C0833409F4BEC0C1C081E85C
:103FB0009AE00E945E060E945F1CC1E0BEC084EAD7
:103FC00096E05BC080912002817F8E7F80932002EB
:103FD00089E896E00E945E068DE79AE00E945E0600
:103FE00081E080932202E9CF81E69AE00E945E069A
:103FF0000E946D07E2CF80912002C82FC095C1704A
:10400000C0FB80F980932002CC2329F085E59AE05B
:104010000E945E0692C088E49AE00E945E0680914B
:104020002002897F877F80932002C7CF9091200252
:1040300091FBCC27C0F981E0C827892FC0FB81F90B
:1040400080932002CC2319F08BE39AE029C08DE203
:104050009AE013C09091200292FBCC27C0F981E036
:10406000C827892FC0FB82F980932002CC2319F046
:104070008EE19AE015C08EE09AE00E945E069DCF28
:104080009091200293FBCC27C0F981E0C827892FAB
:10409000C0FB83F980932002CC2351F082E09AE0A8
:1040A0000E945E068091200281608093200245C0BC
:1040B00085EF99E0E2CF87EA95E00E945E060E94D4
:1040C000C40F1F928F938DE895E09F938F930E946A
:1040D000F70680910C011F928F9386E795E09F93DE
:1040E0008F930E94F70680912F021F928F9383E691
:1040F00095E09F938F930E94F7060E944E1D9F9319
:104100008F937F936F938CE495E09F938F930E949E
:10411000F7068DB79EB742960FB6F8949EBF0FBEB6
:104120008DBF4BCF895301C080E00E94CB1D45CF8E
:1041300083EF99E00E945E06C0E08C2FDF91CF9163
:10414000089580E008950C94A120CF93C82F80910A
:104150002202882319F0813031F038C00E94DB1A26
:104160008232B1F504C00E94DB1A823261F48C2FD6
:104170000E94A320811104C08C2F0E94EB1D24C03B
:1041800081E090E021C08C2F0E94A12081111BC0F2
:10419000C43189F018F4CB3029F010C0C93259F07D
:1041A000C83361F489E896E00E945E0683E495E0F6
:1041B0000E945E0608C0109222020CC081E495E0C5
:1041C0000E945E0607C081E0817006C01092220244
:1041D00080E002C080E0F8CFCF91089580912E0258
:1041E000089508959FB7F894109225029FBF90916B
:1041F0005002943009F057C09091E9009F703091BF
:10420000EC00232F217030FD20E8922B23E0209337
:10421000E9002091EB0020FF43C02091EE0027FF32
:104220003FC020912302222321F02091E80025FFA6
:1042300037C01092230226E03091E80035FD15C00A
:1042400030915002343061F53091EB0035FD28C0DB
:10425000215021F481E08093230222C0EFE9FFE0A6
:104260003197F1F700C00000E7CF8093F100809113
:10427000E80085FD0AC08091E80080FFFCCF8091B6
:10428000E8008E778093E80006C08FB7F89421E0AD
:10429000209325028FBF9F709093E90080E00895DE
:1042A0009F709093E9008FEF0895CF93DF9300D034
:1042B0001F92CDB7DEB790915002943019F58983E3
:1042C0007B836A8382E08093E9008FEF9091E8001E
:1042D000815095FD06C095ED9A95F1F7000081118A
:1042E000F5CF8091E80085FF0DC040E050E063E02D
:1042F00070E0CE0101960E94D3238091E8008E7772
:104300008093E8000F900F900F90DF91CF91089568
:10431000CF93DF93EC010E94B623823011F08430FA
:1043200031F4BE0184E0DF91CF910C945521DF91EF
:10433000CF910895BC0183E00C945521CF93DF9376
:10434000EC010E94B623823011F0843039F581E00F
:104350008093E9008FEF9091E800815095FD06C0B1
:1043600095ED9A95F1F700008111F5CF8091E80065
:1043700085FF14C040E050E068E070E0CE010E948C
:10438000D3238091E8008E778093E80088E0FE01D7
:10439000A6E2B2E001900D928A95E1F7DF91CF910C
:1043A000089582EC9AE00E945E0680914F0281118E
:1043B00009C00E9464250E94C1258091E2008460AA
:1043C0008093E20008958EEB9AE00E945E061092C0
:1043D0004F0208958AEB9AE00C945E0686EB9AE011
:1043E0000C945E0682EB9AE00E945E060C94061D19
:1043F000209124022F5F822F62E30E94802899235C
:1044000019F020932402089510922402809125022D
:10441000882371F180915002843041F58091E90048
:104420008F702091EC00922F917020FD90E8892BE5
:1044300093E09093E9009091EB0090FF14C090916D
:10444000EE0097FF10C09091E80095FF03C0109216
:10445000F100F9CF9091E80090FF05C09091E8003D
:104460009E779093E8008F708093E9001092250268
:10447000089542E061EC81E00E94DD2442E261ECBB
:1044800082E00E94DD2442E261EC83E00C94DD24B2
:1044900080915202833009F460C030F4813071F0B1
:1044A000823009F499C008958A3009F485C08B30B0
:1044B00009F46BC0893009F0A7C020C08091510277
:1044C000813A09F0A1C08091E800877F8093E800DD
:1044D0008091550290915602892B21F468E086E282
:1044E00092E003C060E080E090E070E00E941E2453
:1044F0008091E8008B778093E800089580915102C5
:10450000813209F081C08091550290915602029744
:1045100008F07AC08091E800877F8093E80080915E
:10452000E80082FD05C0809150028111F8CF6CC077
:104530002091F3008091F20090E0922B029729F4F1
:104540008091F1008B7F813021F48091F100809384
:104550002E028091E8008B7753C080915102813AFE
:1045600009F052C08091550290915602892B09F0B2
:104570004BC08091E800877F8093E8008091E8003D
:1045800080FFFCCF80910C0136C0809151028132B6
:10459000D9F58091550290915602892BA9F5809109
:1045A000E800877F8093E8000E94122580915302E3
:1045B00080930C010C940F1580915102813221F5EA
:1045C0008091E800877F8093E8000E941225809107
:1045D000540280932F02089580915102813AA1F4F0
:1045E0008091E800877F8093E8008091E80080FF59
:1045F000FCCF80912F028093F1008091E8008E77AC
:104600008093E8000C941225089584B7877F84BFB7
:104610000FB6F894A895809160008861809360003F
:10462000109260000FBE90E080E80FB6F89480937F
:104630006100909361000FBE0E9455100E94642596
:104640000E94C1258091E20084608093E20082EFA5
:1046500090E20E948C1B78940E9455280E945F1063
:1046600082E091E00E94BF0F81EA9AE00E945E061C
:1046700080915002853089F48DE99AE00E945E06AF
:104680000E94D11C80914E02882391F30E94B81C95
:10469000882371F30E94BD23EBCF0E949110E8CFD5
:1046A0000C945223292F332723303105C9F060F4AD
:1046B0002130310581F02230310509F047C08BE50A
:1046C00090E020E13BE046C02132310511F1223279
:1046D000310561F13BC082E190E02BE63BE03AC05E
:1046E00099278130910561F040F08230910559F0B1
:1046F000039761F5E6ECFAE008C0ECE0FBE005C0EA
:10470000EAEEFAE002C0ECECFAE0849190E09F015E
:1047100021C063307105D0F4660F771FFB01E757A6
:10472000FE4F2081318189E090E014C06330710533
:1047300068F4FB01EE0FFF1FED57FE4F2081318122
:10474000FB01E058FE4F808190E004C080E090E0E3
:1047500020E030E0FA0131832083089580915002F7
:10476000843011F081E0089582E008958091300254
:10477000811102C00C94AE23089580E189BD82E1CD
:1047800089BD09B400FEFDCF8091D8008F7D809354
:10479000D8008091E00082608093E0008091E0008A
:1047A00081FDFCCF0895CF92DF92EF92FF920F939D
:1047B0001F93CF93DF93EC018B017A010E94312587
:1047C000811133C0E114F10439F0F7018081918146
:1047D000081B190BC80FD91FC12CD12C01151105AD
:1047E00019F18091E80085FD16C08091E8008E7770
:1047F0008093E800E114F10449F0F7018081918190
:10480000C80ED91ED182C08285E00FC00E9431251A
:10481000882321F30AC089918093F1000150110986
:10482000FFEFCF1ADF0ADACF80E0DF91CF911F913F
:104830000F91FF90EF90DF90CF9008952091570255
:10484000309158022617370748F06115710539F481
:104850002091E8002E772093E80001C0B901FC0107
:1048600020E06115710579F1809150028823F1F102
:104870008530F1F18091E80083FD3CC08091E80033
:1048800082FD2EC08091E80080FFEBCF2091F300E5
:104890008091F20090E0922B6115710551F0883003
:1048A000910538F421912093F1006150710901962E
:1048B000F3CF21E0089709F020E08091E8008E779F
:1048C0008093E800CECF2111CFCF0AC08091500253
:1048D000882361F0853061F08091E80083FD0AC093
:1048E0008091E80082FFF2CF80E0089582E0089591
:1048F00083E0089581E00895209157023091580295
:104900002617370748F06115710539F42091E80042
:104910002E772093E80001C0B901FC0120E0611569
:10492000710591F180915002882309F440C08530CF
:1049300009F43FC08091E80083FD3DC08091E8000C
:1049400082FD2FC08091E80080FFE9CF2091F30025
:104950008091F20090E0922B6115710559F088303A
:10496000910540F424912093F10031966150710932
:104970000196F2CF21E0089709F020E08091E8004D
:104980008E778093E800CBCF2111CCCF0AC08091E5
:104990005002882361F0853061F08091E80083FD4A
:1049A0000AC08091E80082FFF2CF80E0089582E0A3
:1049B000089583E0089581E00895982F973068F571
:1049C0009093E900981739F07091EC002091ED0078
:1049D0005091F00003C0242F762F50E021FD02C03B
:1049E0009F5FECCF3091EB003E7F3093EB00309136
:1049F000ED003D7F3093ED003091EB00316030935E
:104A0000EB007093EC002093ED005093F0002091A8
:104A1000EE0027FDE5CF80E008958F708093E900D8
:104A200081E008958091510287FF11C08091E800D4
:104A300082FD05C0809150028111F8CF11C0809194
:104A4000E8008B770BC080915002882349F0809159
:104A5000E80080FFF8CF8091E8008E778093E8002F
:104A600008952091E4003091E50095E64091EC0036
:104A7000842F817040FF23C08091E80080FD1DC01D
:104A800080915002882399F0853099F08091EB0055
:104A900085FD11C04091E4005091E50024173507D1
:104AA00029F3915011F09A01E1CF84E0089582E05A
:104AB000089583E0089581E0089580E0089540918D
:104AC000E80042FFDDCF08950E94D2250E94DA253A
:104AD000E0EEF0E0808181608083E8EDF0E08081AD
:104AE0008F77808319BCA7EDB0E08C918E7F8C937B
:104AF00080818F7E808310924F0208950F931F93C1
:104B0000CF93DF930E94D2250E94DA25C8EDD0E032
:104B100088818F77888388818068888388818F7D6A
:104B2000888319BC1092500210924C0210924E02CF
:104B300010924D0200EE10E0F80180818B7F80839F
:104B400088818160888342E060E080E00E94DD240B
:104B5000E1EEF0E080818E7F8083E2EEF0E0808104
:104B600081608083808188608083F80180818E7F6E
:104B70008083888180618883DF91CF911F910F911D
:104B80000895E8EDF0E080818F7E8083E7EDF0E02E
:104B900080818160808384E082BF81E080934F02C6
:104BA0000C947E25E8EDF0E080818E7F808310926A
:104BB000E20008951092DA001092E10008951F9229
:104BC0000F920FB60F9211242F933F934F935F9341
:104BD0006F937F938F939F93AF93BF93EF93FF93C5
:104BE0008091E10082FF0BC08091E20082FF07C04C
:104BF0008091E1008B7F8093E1000E94F8218091F9
:104C0000DA0080FF1FC08091D80080FF1BC0809118
:104C1000DA008E7F8093DA008091D90080FF0DC08A
:104C200080E189BD82E189BD09B400FEFDCF81E04C
:104C3000809350020E94D12105C019BC10925002ED
:104C40000E94E3218091E10080FF19C08091E20081
:104C500080FF15C08091E2008E7F8093E2008091FA
:104C6000E20080618093E2008091D80080628093AE
:104C7000D80019BC85E0809350020E94EE218091FB
:104C8000E10084FF30C08091E20084FF2CC080E10D
:104C900089BD82E189BD09B400FEFDCF8091D800B5
:104CA0008F7D8093D8008091E1008F7E8093E1001A
:104CB0008091E2008F7E8093E2008091E20081602B
:104CC0008093E20080914C02882311F084E007C0B9
:104CD0008091E30087FD02C081E001C083E0809302
:104CE00050020E94F2218091E10083FF29C080914F
:104CF000E20083FF25C08091E100877F8093E1007F
:104D000082E08093500210924C028091E1008E7FED
:104D10008093E1008091E2008E7F8093E200809199
:104D2000E20080618093E20042E060E080E00E9467
:104D3000DD248091F00088608093F0000E94EA21D9
:104D4000FF91EF91BF91AF919F918F917F916F9163
:104D50005F914F913F912F910F900FBE0F901F9039
:104D600018951F920F920FB60F9211242F933F9315
:104D70004F935F936F937F938F939F93AF93BF9363
:104D8000CF93DF93EF93FF93C091E900CF708091B1
:104D9000EC00D82FD17080FDD0E81092E90080910E
:104DA000F000877F8093F00078940E94F52610929F
:104DB000E9008091F00088608093F000CD2BCF70E7
:104DC000C093E900FF91EF91DF91CF91BF91AF9137
:104DD0009F918F917F916F915F914F913F912F9113
:104DE0000F900FBE0F901F9018951F93CF93DF93D6
:104DF000CDB7DEB7AA970FB6F894DEBF0FBECDBF12
:104E0000E1E5F2E08091F100819322E0E935F207DB
:104E1000C9F70E9448228091E80083FF2EC180914B
:104E2000510290915202492F50E04A30510508F04A
:104E300024C1FA01EC58FF4F0C94C228803821F0AD
:104E4000823809F01AC108C080914D0290914E023B
:104E5000992389F082600FC0809155028F7087304E
:104E600008F00BC18093E9008091EB0085FB882757
:104E700080F91092E9009091E800977F9093E80004
:104E80008093F1001092F100D1C0282F2D7F09F0FE
:104E9000F4C0882319F0823061F0EFC08091530292
:104EA000813009F0EAC0933009F080E080934E022F
:104EB0002EC08091530281112AC0809155028F70BB
:104EC0002FEF280F263008F0D8C08093E9002091FA
:104ED000EB0020FF1CC0933021F48091EB00806236
:104EE00014C09091EB0090619093EB0021E030E0D2
:104EF000A90102C0440F551F8A95E2F74093EA00CA
:104F00001092EA008091EB0088608093EB00109291
:104F1000E9008091E800877F8093E8000E941225D5
:104F2000ACC08111AAC0109153021F778091E30099
:104F30008078812B8093E3008091E800877F8093C5
:104F4000E8000E9412258091E80080FFFCCF80914C
:104F5000E30080688093E300111102C082E001C089
:104F600083E08093500289C08058823008F085C069
:104F700080915302909154028C3D53E0950779F54E
:104F800083E08A838AE289834FB7F894DE0113961F
:104F900020E03EE051E2E32FF0E050935700E4912F
:104FA00020FF03C0E295EF703F5FEF708E2F90E01F
:104FB000EA3010F0C79601C0C0968D939D932F5F85
:104FC000243149F74FBF8091E800877F8093E80044
:104FD0006AE270E0CE0101960E941E2416C0609124
:104FE000550270915602AE014F5F5F4F0E945023F1
:104FF000BC01892B09F441C09091E800977F909300
:10500000E80089819A810E947C248091E8008B7756
:105010008093E80032C0803881F58091E800877F76
:105020008093E80080914C028093F1008091E80029
:105030008E7772CF811121C08091530290915402DA
:1050400099270297D4F48091E800877F8093E80045
:105050008091530280934C020E94122580914C0251
:10506000811106C08091E30087FD02C081E001C08C
:1050700084E0809350020E9439228091E80083FFEF
:105080000AC08091E800877F8093E8008091EB0060
:1050900080628093EB00AA960FB6F894DEBF0FBE35
:1050A000CDBFDF91CF911F910895CF938091500292
:1050B0008823A1F0C091E900CF709091EC00892F76
:1050C000817090FD80E8C82B1092E9008091E80083
:1050D00083FD0E94F526CF70C093E900CF9108951B
:1050E000DB018F939F930E94D728BF91AF91A29F1E
:1050F000800D911DA39F900DB29F900D11240895D6
:10510000991B79E004C0991F961708F0961B881F19
:105110007A95C9F780950895AA1BBB1B51E107C07A
:10512000AA1FBB1FA617B70710F0A61BB70B881F37
:10513000991F5A95A9F780959095BC01CD010895C6
:10514000A1E21A2EAA1BBB1BFD010DC0AA1FBB1F8B
:10515000EE1FFF1FA217B307E407F50720F0A21BFD
:10516000B30BE40BF50B661F771F881F991F1A946A
:1051700069F760957095809590959B01AC01BD0194
:10518000CF010895EE0FFF1F0590F491E02D0994D3
:10519000A29FB001B39FC001A39F700D811D112478
:1051A000911DB29F700D811D1124911D08950E94C3
:1051B000C828A59F900DB49F900DA49F800D911DB0
:1051C00011240895F999FECF92BD81BDF89A9927CF
:1051D00080B50895A8E1B0E042E050E00C941629B3
:1051E000262FF999FECF92BD81BDF89A019700B4A0
:1051F000021639F01FBA20BD0FB6F894FA9AF99A40
:105200000FBE08950396272F0E94F1280E94F028D0
:10521000252F0E94F128242F0C94F1280196272F86
:105220000E94F1280C94F028DC01CB01FC01F999D3
:10523000FECF06C0F2BDE1BDF89A319600B40D92E2
:0C52400041505040B8F70895F894FFCF9B
:10524C001502EE209E21F1209A21882101E200E92D
:10525C0000EA00B500B600B700CD008301CC008A8F
:10526C000192019401210223022402250226022725
:10527C00022A02B300B4006F007000818283F1F443
:10528C0031323337919294969734C6F0F5F6F7E2B3
:10529C0000E900EA00B500B600B700CD008301CCF0
:1052AC00008A019201940121022302240225022684
:1052BC000227022A02B300B4006F007000818283BF
:1052CC00403222D10B9F0B7D0B220B3B0B540B005E
:00000001FF
